:100000000C94AC000C9429020C94D4000C94D400F1
:100010000C94D4000C94D4000C94D4000C94D40010
:100020000C94D4000C94420F0C94D4000C94D40083
:100030000C94D4000C94D4000C94D4000C94D400F0
:100040000C94720F0C94D4000C94D4000C94D40033
:100050000C94D4000C94D4000C94D4000C94D400D0
:100060000C94D4000C94D4000403090420037200FF
:1000700061006E006300690064006200610063005B
:100080006F006E002E0063006F006D0018035500B6
:10009000730062004B006500790062006F00610030
:1000A000720064001201100100000008424231E1B8
:1000B0000001010200010902220001010080320951
:1000C00004000001030000000921010100012223B6
:1000D000000705810308000A05010906A1010507BB
:1000E00019E029E71500250175019508810295039E
:1000F00075082565190029658100C00000000024ED
:100100000027002A0000000000250028002B000026
:100110000000002300260029000404040404040451
:1001200004020202020202030303030303010204A6
:100130000810204080010204081020010204081069
:100140002000000007000201000003040600000078
:10015000000000000000F50411241FBECFEFD8E01E
:10016000DEBFCDBF11E0A0E0B1E0E2EFF1E202C0FE
:1001700005900D92AC3AB107D9F712E0ACEAB1E0C4
:1001800001C01D92A13DB107E1F711E0C8E5D1E042
:1001900004C02297FE010E94F310C635D107C9F7AB
:1001A0000E943B0F0C94F7100C940000E9E6F0E07D
:1001B000808182608083E89A8BE48093D5018AE510
:1001C0008093D40108951F93CF93DF939091C6013C
:1001D000935097FDA6C02091C2018091C8018D3235
:1001E00009F09DC0983009F09AC0CCE0D0E0C21B65
:1001F000D109C455DE4F83EC8093C9018AE5809311
:1002000005011092E2018881807629F0CE010E94DA
:10021000CD04282F7BC09A811092D2018981882336
:1002200021F41092D30122E06BC0853019F4909331
:10023000C40165C0863009F04EC08B81813041F425
:1002400084EA90E09093E1018093E00122E13FC0D5
:10025000823041F486EB90E09093E1018093E001DD
:1002600022E235C08330F1F4992341F488E690E02E
:100270009093E1018093E00124E029C0913041F4A2
:100280008CE690E09093E1018093E00120E21FC0B2
:100290009230E1F48CE890E09093E1018093E001EA
:1002A00028E115C0813241F488EC90E09093E1019F
:1002B0008093E00129E00BC0823241F488ED90E0A8
:1002C0009093E1018093E00123E201C020E080E40B
:1002D0008093E2011BC0883021F421E085EC91E09D
:1002E00011C0893019F49093C50109C08A3011F406
:1002F00021E006C08B3019F48BE48093D50120E017
:1003000082ED91E09093E1018093E0018F81882359
:1003100021F48E81821708F4282F20930601109271
:10032000C6018091050184FF4AC0809106018F3F7C
:1003300009F445C0182F893008F018E0811B80931C
:1003400006018091C90198E889278093C90111238A
:1003500041F12091E0013091E1018091E20186FFBD
:100360000DC0AAECB1E080E090E0F901E80FF91FC0
:10037000E491ED9301961817C1F708C0912FD901A8
:10038000EAECF1E08D9181939150E1F71150812FCA
:1003900090E01F5F0196820F931F9093E10180937D
:1003A000E0018AEC91E0612F0E942502612F6C5FD1
:1003B0006C3019F08FEF809306016093050194E192
:1003C00089B1847131F49150D9F71092C40110921F
:1003D000C301DF91CF911F9108951F93DC01162F68
:1003E0008091D40184FF07C08091D50198E88927C6
:1003F0008093D50103C08AE58093D401912FE6ED67
:10040000F1E08D91819391501916DCF386ED91E026
:10041000612F0E9425021C5F1093D4011F91089543
:10042000A82FB92F80E090E041E050EA609530E0DD
:1004300009C02D9182279795879510F084279527DD
:10044000305EC8F36F5FA8F30895EADF8D939D9344
:100450000895CF93CFB7CF93DF93C3954C9BE9F724
:100460004C9B0BC04C9B09C04C9B07C04C9B05C0D0
:100470004C9B03C04C9B01C08BC06F93C091C201C9
:10048000DD27C455DE4F2F9365E54C9B03C02F91AC
:100490006F91E6CF0F931F934F9320E040E15F935E
:1004A00009B1047104FB27F93F9350E03BE039C0E8
:1004B000147140642F77012F5F5F1EC0406819B12F
:1004C00014712F7752501FC0406409B12F77047107
:1004D000D1F15F5F00C023C0406219B12F77147162
:1004E00091F15F5F00C025C004711027515012F4D4
:1004F0005D5F0000115027952C3F19B1C8F61471AB
:100500000127015027952C3FC8F64227499309B18E
:10051000047110274F73115027952C3FA8F646956C
:10052000469519B1147179F00127015027952C3F98
:1005300098F66B5A60F3315009B1B0F600C011E083
:100540001CBB002719C03B503195C31BD04011E0A4
:100550001CBB0881033C09F10B34F9F02091C30165
:100560001981110F1213EDCF4A81441F093651F141
:100570000D3211F0013E29F70093C7013F915F91C1
:100580004F911F910F912F916F91CCB3C0FD65CF0B
:10059000DF91CF91CFBFCF9118952091C701222332
:1005A00069F31091C601112391F5343092F1309323
:1005B000C6012093C8011091C2013BE0311B30936A
:1005C000C20127C00091C60101300CF50AE54F7049
:1005D00049F43091050134FD1DC000930501C9ECBB
:1005E000D1E01CC03091D40134FD14C00093D4017B
:1005F000C5EDD1E013C0052710E000C000000BB925
:100600001AC0052710E0221F1DC010E021C04AE5D6
:1006100002C032ED432FC4E1D0E032E01AB11461E0
:100620005C9A0BB11AB954E120E865E320FF052775
:100630000BB9279517951C3FF0F66695B8F7B1F7FB
:1006400020FF05270BB9279517951C3FD0F6279556
:10065000179517FF052700001C3F0BB9B0F629912D
:100660003A9519F70B7E1091C401110FC651D04075
:100670000BB911F01093C30111E01CBB00611AB15A
:100680001B7E402F4B7E54E05A95F1F70BB91AB9F7
:100690004BB974CFCF93DF93BC018230910510F436
:1006A00062E070E0A091CF02B091D002ED01E0E0F5
:1006B000F0E040E050E021C08881998186179707DB
:1006C00069F48A819B81309719F09383828304C0F7
:1006D0009093D0028093CF02FE0134C0681779074F
:1006E00038F44115510519F08417950708F4AC0149
:1006F000FE018A819B819C01E9012097E9F6411561
:100700005105A9F1CA01861B970B049708F4BA0199
:10071000E0E0F0E02AC08D919C9111978417950735
:10072000F9F46417750781F412968D919C911397D3
:10073000309719F09383828304C09093D002809302
:10074000CF02FD0132964CC0CA01861B970BFD01FA
:10075000E80FF91F6193719302978D939C9340C0AA
:10076000FD01828193819C01D9011097A1F68091AE
:10077000CD029091CE02892B41F48091A4019091F9
:10078000A5019093CE028093CD024091A601509195
:10079000A7014115510541F44DB75EB78091A20103
:1007A0009091A301481B590B2091CD023091CE02AC
:1007B000CA01821B930B8617970780F0AB014E5F2F
:1007C0005F4F8417950750F0420F531F5093CE028E
:1007D0004093CD02F9016193719302C0E0E0F0E033
:1007E000CF01DF91CF910895CF93DF93009709F464
:1007F00050C0EC0122971B821A82A091CF02B091C7
:10080000D002109709F140E050E0AC17BD0708F1A5
:10081000BB83AA83FE0121913191E20FF31FAE1732
:10082000BF0779F48D919C911197280F391F2E5F86
:100830003F4F3983288312968D919C9113979B8308
:100840008A834115510571F4D093D002C093CF0231
:1008500020C012968D919C911397AD01009711F0D5
:10086000DC01D3CFFA01D383C28321913191E20F0E
:10087000F31FCE17DF0769F488819981280F391F8C
:100880002E5F3F4FFA01318320838A819B819383BE
:100890008283DF91CF910895FB01DC0141505040EC
:1008A00048F001900D920020C9F701C01D924150FF
:1008B0005040E0F70895F999FECF72BD61BDF89AF6
:1008C00080B50895F999FECF1FBA72BD61BD40BDD4
:1008D0000FB6F894FA9AF99A0FBE0895FC0177FDC5
:1008E0000CC0828193816817790738F40190F081F8
:1008F000E02DE60FF71F8081089580E00895FC0148
:10090000808191810E94F40308950F931F938C01BD
:10091000FB0101900020E9F73197E61BF70BDC01A2
:100920001396FC93EE93129731968D919C91AF01A3
:100930000E944C04D801ED91FC91119712968D9173
:100940009C911397E80FF91F10821F910F91089542
:100950000F931F93CF93DF93EC018B01611571050A
:1009600011F400E011E0F80101900020E9F731975F
:10097000E01BF10BFB83EA833196FD83EC83CF010F
:100980000E944A0388839983CE01B8010E9485049E
:10099000DF91CF911F910F910895FC0184EE91E0BA
:1009A0009093E1018093E00180818076803251F460
:1009B0008181813039F0823029F08A3019F48381C5
:1009C0008093C30280E0089580E090E00000000082
:1009D0000000000000000000000000000000000017
:1009E00001968436910591F708951BB88AB18B6EF4
:1009F0008AB9F89455985D98559A5D9A0E94D600E8
:100A000078941092E4011092E5011092E6011092A0
:100A1000E70184EE91E064E00E94ED010895CF9338
:100A2000DF93EC018091D40184FFFCCF18821982FE
:100A30001A821B8248836983CE0164E00E94ED0123
:100A40008091D40184FFFCCF188219821A821B8204
:100A5000CE0164E00E94ED01DF91CF9108950F93E4
:100A60001F93082F162F1092C2021092C10280917C
:100A7000C1029091C202892BD1F30E94E404112398
:100A800029F484EE91E0602F40E004C084EE91E010
:100A9000602F412F0E940F051092C2021092C102D6
:100AA0008091C1029091C2020597D0F31092C202C8
:100AB0001092C1021F910F9108951F93182F109249
:100AC000C2021092C1028091C1029091C202892B90
:100AD000D1F30E94E40484EE91E0612F40E00E9493
:100AE0000F051092C2021092C1028091C102909132
:100AF000C2020597D0F31092C2021092C1021F9158
:100B00000895CF93DF93C0E0D0E083EE91E0BE0183
:100B10000E945B04FE01EF50FE4F80832196C43695
:100B2000D10599F71092EC01C4E6D0E083EE91E094
:100B3000BE010E945B04FE01EF50FE4F80832196B0
:100B4000C83CD10599F783EE91E062ED70E00E9418
:100B50005B048093EE011092EF0183EE91E063ED70
:100B600070E00E945B041092F001882319F081E08C
:100B70008093F0011092EC01DF91CF9108951F93C3
:100B8000182F00000000000000000000000000001E
:100B900000000000000061E00E9422100000000040
:100BA0000000000000000000000000000000000045
:100BB000812F60E00E942210000000000000000071
:100BC0000000000000000000000000001F910895D8
:100BD0008CE061E00E9422108DE090E00E94BF0551
:100BE0008CE060E00E942210000000000895EF9267
:100BF000FF920F931F93CF93DF93C0E0D0E0FF24C9
:100C0000EE24E39403C0FF24C0E0D0E00E94E80596
:100C100000E011E08DE090E00E94BF0586E00E94B8
:100C20006F10019709F4012F1F5F1F3599F70023FB
:100C300019F4E092ED0102C01092ED0187E00E94EC
:100C40006F102091BD0230E08217930739F0809138
:100C5000EE019091EF01079709F000E688E00E940D
:100C60006F102091BE0230E08217930739F0809117
:100C7000EE019091EF01089709F001E68AE00E94E9
:100C80006F102091BF0230E08217930739F08091F6
:100C9000EE019091EF010A9709F002E68BE00E94C5
:100CA0006F102091C00230E08217930741F08091CD
:100CB000EE019091EF010B9711F003E602C00023C3
:100CC00029F00F1519F42196F02E13C08091B90266
:100CD0009091BA0225E7803392072CF40196909305
:100CE000BA028093B902002309F48DCFF02EC0E040
:100CF000D0E08091BB0290E0C817D9070CF486CFF2
:100D0000802FDF91CF911F910F91FF90EF90089569
:100D1000EF92FF920F931F93DF93CF930F92CDB774
:100D2000DEB719821092BA021092B9020E94F7053A
:100D3000F82E082F10E0F801EF50FE4FE08081E11F
:100D40000E946F10892B19F48981816089838091B9
:100D5000EE010E946F102091F00130E0821793079E
:100D600019F089818260898380E10E946F10892B4C
:100D700059F40B5A1D4FD801EC91EE2311F0EE2ED1
:100D800003C0898184608983BAEFEB1629F48981D5
:100D9000826089838FE1E82E8FE00E946F10892B9B
:100DA00019F4898188608983FF2009F473C08F2D2D
:100DB00064E60E94BE10092F10E0903608F44DC082
:100DC000F801EF50FE4FE081E83279F48091AA01FA
:100DD0009091AB0164E670E00E94CA10FC01EF50F4
:100DE000FE4F80818C32B9F410C0EC32A1F48091B6
:100DF000AA019091AB0164E670E00E94CA10FC0168
:100E0000EF50FE4F8081883231F48091B902909189
:100E1000BA020397ACF08091AA019091AB01081738
:100E2000190751F48091BC0290E02091B9023091F1
:100E3000BA028217930724F48E2D69810E942F0530
:100E40001093AB010093AA018091ED01882311F169
:100E50001092A9011092A8011DC08091A801909143
:100E6000A9010817190751F48091BC0290E0209164
:100E7000B9023091BA028217930724F48E2D69814A
:100E80000E942F051093A9010093A8011092AB01B5
:100E90001092AA010F90CF91DF911F910F91FF90B7
:100EA000EF900895CF93DF931092EB011092EC0135
:100EB0001092EA011092E90181E10E946F10892BE2
:100EC00091F58FE00E946F10892B69F581E0809386
:100ED000E80119C081E08093EA0115C080E10E9419
:100EE0006F10892B21F481E08093E9010CC081E12E
:100EF0000E946F10892B21F481E08093EB0103C0E5
:100F000081E08093EC018CE060E00E942210C1EF50
:100F1000D1E08DE090E00E94BF05199282E0C93BCC
:100F2000D807B9F706C08FE00E946F10892B91F2A5
:100F3000D5CFDF91CF9108950F931F93CF93DF9378
:100F40008C01C0E0D0E005C088EE93E00E94BA0FAB
:100F50002196C017D107C0F3DF91CF911F910F9158
:100F60000895EEE6F0E080811082F89455985D983F
:100F70008AEF90E00E949C07559A5D9A78940895B4
:100F80008CE061E00E9402108DE061E00E9402109E
:100F900086E060E00E94021087E060E00E9402109C
:100FA00088E060E00E9402108AE060E00E94021087
:100FB0008BE060E00E94021081E160E00E9402107C
:100FC00080E160E00E9402108FE060E00E94021069
:100FD00081E161E00E94221080E161E00E94221024
:100FE0008FE061E00E94221087E061E00E94221001
:100FF00088E061E00E9422108AE061E00E942210F5
:101000008BE061E00E942210000087E00E946F10D8
:101010001092BD02892B19F081E08093BD0288E017
:101020000E946F101092BE02892B19F081E080930C
:10103000BE028AE00E946F101092BF02892B19F045
:1010400081E08093BF028BE00E946F101092C0027B
:10105000892B19F081E08093C00208950E94C00797
:101060008DE061E00E94221085E090E00E949C07E4
:101070000E9452070E94B1071092B00087E080934F
:10108000B10081E0809370008093B2001092C202A0
:101090001092C10283EE91E065EF70E00E945B0464
:1010A0008093BB0281508E3F50F08FE08093BB0253
:1010B00083EE91E065EF70E04FE00E94620483EE02
:1010C00091E064EF70E00E945B048093BC02815069
:1010D0008E3F50F08AE08093BC0283EE91E064EF93
:1010E00070E04AE00E9462048091C1029091C202C5
:1010F000883C9105C8F30895EF92FF920F931F93D8
:10110000CF93DF938C01FC01E280F3801092C20246
:101110001092C1028091C1029091C2020297D0F355
:10112000C0E0D0E011C0C801BE010E946E04803250
:1011300019F48CE290E004C0992787FD9095CD9733
:1011400062E00E942F052196EC16FD0664F71092CE
:10115000C2021092C1028091C1029091C202029714
:10116000D0F3DF91CF911F910F91FF90EF900895F1
:10117000CF92DF92EF92FF920F931F93DF93CF9363
:1011800000D000D000D0CDB7DEB79C016AE070E09F
:101190000E94CA106C01281B390BC90164E670E07B
:1011A0000E94CA106AE070E00E94CA107B0110928F
:1011B000C2021092C1028091C1029091C2020297B4
:1011C000D0F386EF9FEFAC01E49EC001E59E900D49
:1011D000F49E900D1124820F931F64E670E00E942C
:1011E000CA10672B91F08E010F5F1F4FC80167E097
:1011F00071E00E94A804C8010E947C08C8010E94F6
:101200007F048EE262E00E942F051092C2021092CB
:10121000C1028091C1029091C2020297D0F3E11401
:10122000F10419F08E2D835E01C087E260E00E9418
:101230002F051092C2021092C1028091C1029091BA
:10124000C2020297D0F3C114D10419F08C2D835E31
:1012500001C087E260E00E942F051092C202109246
:10126000C1028091C1029091C2020297D0F32696EA
:101270000FB6F894DEBF0FBECDBFCF91DF911F91A7
:101280000F91FF90EF90DF90CF9008951F93CF9331
:10129000DF93182F0E94F705C82FD0E02097D1F3D5
:1012A00080E10E946F10892B41F4CE018C599F4F31
:1012B000FC01EF50FE4F108305C0FE01EF50FE4FC2
:1012C0001083CE010E94B8081092C2021092C1028F
:1012D0008091C1029091C2024E97D0F31092C20247
:1012E0001092C102DF91CF911F91089586E162E0D3
:1012F0000E942F0588E062E00E942F0581E162E0F4
:101300000E942F0586E162E00E942F0588E062E0DE
:101310000E942F058CE262E00E942F0587E162E0C7
:101320000E942F058CE062E00E942F0580E162E0C0
:101330000E942F0588E062E00E942F0583E362E0AF
:101340000E942F052DC081E10E946F10892BA1F40E
:101350004091BB024F5F4093BB0283EE91E065EF8B
:1013600070E00E9462048091BB0290E00E94B80885
:1013700088E260E00E942F0580E10E946F10892BB7
:10138000C1F48091BB02882319F081508093BB0285
:1013900083EE91E065EF70E04091BB020E94620431
:1013A0008091BB0290E00E94B80888E260E00E9451
:1013B0002F058FE00E946F10019729F287E062E00D
:1013C0000E942F0582E162E00E942F0588E162E021
:1013D0000E942F0585E062E00E942F058FE062E009
:1013E0000E942F0588E062E00E942F058CE262E0F7
:1013F0000E942F0587E162E00E942F0584E062E0F1
:101400000E942F0583E162E00E942F058CE262E0DA
:101410000E942F0587E162E00E942F058CE062E0C8
:101420000E942F0580E162E00E942F0588E062E0C3
:101430000E942F0583E362E00E942F052DC081E109
:101440000E946F10892BA1F44091BC024F5F409322
:10145000BC0283EE91E064EF70E00E946204809130
:10146000BC0290E00E94B80888E260E00E942F056C
:1014700080E10E946F10892BC1F48091BC02882307
:1014800019F081508093BC0283EE91E064EF70E02C
:101490004091BC020E9462048091BC0290E00E94D4
:1014A000B80888E260E00E942F058FE00E946F106C
:1014B000019729F282E162E00E942F058EE062E04E
:1014C0000E942F0588E260E00E942F051092E9013A
:1014D00081E08093EC010895AF92BF92CF92DF92AA
:1014E000EF92FF920F931F93DF93CF93CDB7DEB7A9
:1014F000A4970FB6F894DEBF0FBECDBF8E010F5F6D
:101500001F4FC8016BE071E00E94A804C8010E944F
:101510007C08C8010E947F0483E362E00E942F05DB
:101520008AE20E94460988E20E945D058E01095FF9
:101530001F4FC80165E171E00E94A804C8010E9424
:101540007C08C8010E947F0483E362E00E942F05AB
:1015500089E20E94460988E20E945D058E01035FD0
:101560001F4FC80169E171E00E94A804C8010E94F0
:101570007C08C8010E947F0483E362E00E942F057B
:101580008BE20E94460988E20E945D058E010D5E95
:101590001F4FC8016DE171E00E94A804C8010E94BC
:1015A0007C08C8010E947F0483E362E00E942F054B
:1015B00088E20E94460988E20E945D058E01075E6E
:1015C0001F4FC80163E271E00E94A804C8010E9495
:1015D0007C08C8010E947F0483E362E00E942F051B
:1015E0008CE20E94460988E20E945D058E01015E40
:1015F0001F4FC80169E271E00E94A804C8010E945F
:101600007C08C8010E947F0483E362E00E942F05EA
:1016100037E0A32EB12C28E0C22ED12C9AE0E92E7F
:10162000F12C0BE010E040C087E00E946F10409169
:10163000BD02242F30E08217930731F0B092EF0102
:10164000A092EE014093F00188E00E946F1040915B
:10165000BE02242F30E08217930731F0D092EF01C1
:10166000C092EE014093F0018AE00E946F10409119
:10167000BF02242F30E08217930731F0F092EF0180
:10168000E092EE014093F0018BE00E946F104091D8
:10169000C002242F30E08217930731F01093EF013E
:1016A0000093EE014093F0018091EE019091EF01E3
:1016B000892B09F4B9CF88E20E945D0500E610E0AD
:1016C000F801EF50FE4F83EE91E0B80140810E9497
:1016D00062040F5F1F4F0436110591F783EE91E00E
:1016E00062ED70E04091EE010E94620483EE91E0B1
:1016F00063ED70E04091F0010E9462041092E801F5
:1017000081E08093EC01A4960FB6F894DEBF0FBE83
:10171000CDBFCF91DF911F910F91FF90EF90DF90A0
:10172000CF90BF90AF9008950F931F93DF93CF9307
:10173000CDB7DEB768970FB6F894DEBF0FBECDBF4A
:101740008E010F5F1F4FC8016FE271E00E94A80475
:10175000C8010E947C08C8010E947F0486E262E002
:101760000E942F0587E162E00E942F0580E162E080
:101770000E942F0587E262E00E942F0588E20E9406
:101780005D058E01095F1F4FC8016EE371E00E9485
:10179000A804C8010E947C08C8010E947F048CE252
:1017A00062E00E942F0581E260E00E942F0587E33E
:1017B00060E00E942F0580E260E00E942F0588E231
:1017C0000E945D058E01035F1F4FC80162E471E056
:1017D0000E94A804C8010E947C08C8010E947F04DE
:1017E00087E30E945D0587E30E945D0587E30E9411
:1017F0005D0588E260E00E942F058E010D5E1F4F9F
:10180000C8016EE471E00E94A804C8010E947C082F
:10181000C8010E947F0487E360E00E942F0587E3F0
:1018200060E00E942F0587E360E00E942F0588E2B8
:101830000E945D0568960FB6F894DEBF0FBECDBF5F
:10184000CF91DF911F910F910895AF92BF92CF92E8
:10185000DF92EF92FF920F931F93DF93CF93CDB759
:10186000DEB7C455D0400FB6F894DEBF0FBECDBF73
:101870000E94940B14E0812F0E945D0583E362E0D7
:101880000E942F05812F0E94460988E20E945D0573
:101890001F5F1E3181F7812F0E945D0583E362E0A7
:1018A0000E942F05812F0E94460988E20E945D0553
:1018B0001F5F183281F787E30E945D0583E362E0D2
:1018C0000E942F0587E30E94460988E20E945D0579
:1018D00086E30E945D0583E362E00E942F0586E3B4
:1018E0000E94460988E20E945D0588E30E945D052A
:1018F00083E362E00E942F0588E30E94460988E2A4
:101900000E945D0583E30E945D0583E362E00E941F
:101910002F0583E30E94460988E20E945D0584E367
:101920000E945D0583E362E00E942F0584E30E942C
:10193000460988E20E945D058E010F5F1F4FC801B6
:1019400066E671E00E94A804C8010E947C08C801F4
:101950000E947F0483E362E00E942F058CE40E94D2
:10196000460988E20E945D058DE20E945D0583E3E1
:1019700062E00E942F058DE20E94460988E20E94E3
:101980005D058EE20E945D0583E362E00E942F0503
:101990008EE20E94460988E20E945D0581E30E9472
:1019A0005D0583E362E00E942F0581E30E94460902
:1019B00088E20E945D058FE20E945D0583E362E09C
:1019C0000E942F058FE20E94460988E20E945D0571
:1019D00080E30E945D0583E362E00E942F0580E3BF
:1019E0000E94460988E20E945D0585E362E00E944C
:1019F0002F0583E362E00E942F0585E30E944609DC
:101A000088E20E945D058E01095F1F4FC8016DE6E7
:101A100071E00E94A804C8010E947C08C8010E94CD
:101A20007F0483E362E00E942F0580E50E9446095F
:101A300088E20E945D058E01035F1F4FC80162E7C7
:101A400071E00E94A804C8010E947C08C8010E949D
:101A50007F0483E362E00E942F058FE40E94460921
:101A600088E20E945D058E010D5E1F4FC80168E788
:101A700071E00E94A804C8010E947C08C8010E946D
:101A80007F0483E362E00E942F0582E50E944609FD
:101A900088E20E945D058E01075E1F4FC8016BE75B
:101AA00071E00E94A804C8010E947C08C8010E943D
:101AB0007F0483E362E00E942F0581E50E944609CE
:101AC00088E20E945D058FE162E00E942F0583E3BA
:101AD00062E00E942F058AEF0E94460988E20E9478
:101AE0005D0501E010E089E062E00E942F05C80179
:101AF0000E94B80883E362E00E942F05802F875C74
:101B00000E94460988E20E945D050F5F1F4F0D305D
:101B1000110549F78E01015E1F4FC8016BE071E0AE
:101B20000E94A804C8010E947C08C8010E947F048A
:101B300083E362E00E942F058AE20E94460988E260
:101B40000E945D058E010B5D1F4FC80165E171E0CC
:101B50000E94A804C8010E947C08C8010E947F045A
:101B600083E362E00E942F0589E20E94460988E231
:101B70000E945D058E01055D1F4FC80169E171E09E
:101B80000E94A804C8010E947C08C8010E947F042A
:101B900083E362E00E942F058BE20E94460988E2FF
:101BA0000E945D058E010F5C1F4FC8016DE171E061
:101BB0000E94A804C8010E947C08C8010E947F04FA
:101BC00083E362E00E942F0588E20E94460988E2D2
:101BD0000E945D058E01095C1F4FC80160E871E03D
:101BE0000E94A804C8010E947C08C8010E947F04CA
:101BF00083E362E00E942F0588E20E94460988E2A2
:101C00000E945D058E01035C1F4FC80163E271E015
:101C10000E94A804C8010E947C08C8010E947F0499
:101C200083E362E00E942F058CE20E94460988E26D
:101C30000E945D058E010D5B1F4FC80169E271E0D6
:101C40000E94A804C8010E947C08C8010E947F0469
:101C500083E362E00E942F0567E0A62EB12C58E0D6
:101C6000C52ED12C4AE0E42EF12C0BE010E040C050
:101C700087E00E946F104091BD02242F30E0821750
:101C8000930731F0B092EF01A092EE014093F00182
:101C900088E00E946F104091BE02242F30E082172E
:101CA000930731F0D092EF01C092EE014093F00122
:101CB0008AE00E946F104091BF02242F30E082170B
:101CC000930731F0F092EF01E092EE014093F001C2
:101CD0008BE00E946F104091C002242F30E08217E9
:101CE000930731F01093EF010093EE014093F00160
:101CF0008091EE019091EF01892B09F4B9CF88E230
:101D00000E945D058E01075B1F4FC80160E971E00D
:101D10000E94A804C8010E947C08C8010E947F0498
:101D20008CE20E945D058E01015B1F4FC8016CE9CA
:101D300071E00E94A804C8010E947C08C8010E94AA
:101D40007F048EE162E00E942F0588E20E945D051B
:101D500001E010E0F801EF50FE4F83EE91E0B80192
:101D600040810E9462040F5F1F4F093C110591F7EB
:101D700083EE91E062ED70E04091EE010E9462041A
:101D800083EE91E063ED70E04091F0010E94620407
:101D90001092EB01CC5ADF4F0FB6F894DEBF0FBEA6
:101DA000CDBFCF91DF911F910F91FF90EF90DF900A
:101DB000CF90BF90AF9008950F931F93CF93DF9371
:101DC0008091EA018823A1F181E061E00E94021084
:101DD00001E087E00E946F1010E0892B09F011E00C
:101DE00088E00E946F10892B09F010278AE00E947A
:101DF0006F10892B09F010278BE00E946F10892B40
:101E000009F01027112319F4C8EED3E002C0C4EF83
:101E1000D1E081E061E00E942210CE010E94BA0F61
:101E200081E060E00E942210CE010E94BA0FD1CF63
:101E30008091E801882319F00E946C0A17C08091F4
:101E4000EB01882319F00E94250C10C08091EC0151
:101E5000882319F00E94810509C08091E901882337
:101E600019F00E94760902C00E948806DF91CF9186
:101E70001F910F9108950E94C80F0E942E080E9482
:101E8000DC0EFDCF1F920F920FB60F9211242F93ED
:101E90003F934F935F936F937F938F939F93AF93F2
:101EA000BF93EF93FF938091C1029091C20201967C
:101EB0009093C2028093C1020E94E30081E080936C
:101EC000B200FF91EF91BF91AF919F918F917F9160
:101ED0006F915F914F913F912F910F900FBE0F9097
:101EE0001F9018951F920F920FB60F9211242F93E7
:101EF0003F938F939F93AF93BF938091C80290912C
:101F0000C902A091CA02B091CB023091CC020196D5
:101F1000A11DB11D232F2D5F2D3720F02D570196C8
:101F2000A11DB11D2093CC028093C8029093C902D9
:101F3000A093CA02B093CB028091C4029091C502D3
:101F4000A091C602B091C7020196A11DB11D809358
:101F5000C4029093C502A093C602B093C702BF917A
:101F6000AF919F918F913F912F910F900FBE0F9046
:101F70001F901895019759F0FC01EE0FFF1FEE0F0F
:101F8000FF1F32978FB7F8943197F1F78FBF0895FD
:101F9000789484B5826084BD84B5816084BD85B544
:101FA000826085BD85B5816085BDEEE6F0E080810B
:101FB00081608083E1E8F0E08081826080838081BD
:101FC00081608083E0E8F0E0808181608083E1EBE4
:101FD000F0E0808184608083E0EBF0E080818160CC
:101FE0008083EAE7F0E08081846080838081826082
:101FF000808380818160808380818068808310926B
:10200000C1000895282F30E0C901835D9E4FFC0177
:102010009491275E3E4FF9018491882391F0E82F37
:10202000F0E0EE0FFF1FE550FF4FA591B49166233E
:1020300029F48C91909589238C9308958C91892B08
:102040008C930895482F50E0CA018F5B9E4FFC018E
:102050002491CA01835D9E4FFC019491475E5E4FBF
:10206000FA0134913323D1F1222331F1233021F4C9
:10207000809180008F7705C0243031F480918000FA
:102080008F7D8093800018C0213019F484B58F773C
:1020900004C0223021F484B58F7D84BD0DC026306C
:1020A00021F48091B0008F7705C0273029F480910A
:1020B000B0008F7D8093B000E32FF0E0EE0FFF1FA4
:1020C000EB5FFE4FA591B491662329F48C91909516
:1020D00089238C9308958C91892B8C930895682F74
:1020E00070E0CB018F5B9E4FFC012491CB01835D9F
:1020F0009E4FFC014491675E7E4FFB0194919923B2
:1021000019F420E030E038C0222331F1233021F4EB
:10211000809180008F7705C0243031F48091800059
:102120008F7D8093800018C0213019F484B58F779B
:1021300004C0223021F484B58F7D84BD0DC02630CB
:1021400021F48091B0008F7705C0273029F4809169
:10215000B0008F7D8093B000892F90E0880F991F89
:10216000815F9E4FFC01A591B4918C9120E030E0FD
:10217000842311F021E030E0C9010895991B79E032
:1021800004C0991F961708F0961B881F7A95C9F707
:102190008095089597FB092E07260AD077FD04D075
:1021A0000CD006D000201AF4709561957F4F0895E9
:1021B000F6F7909581959F4F0895AA1BBB1B51E19F
:1021C00007C0AA1FBB1FA617B70710F0A61BB70BA7
:1021D000881F991F5A95A9F780959095BC01CD014C
:1021E0000895EE0FFF1F0590F491E02D0994F894E7
:0221F000FFCF1F
:1021F20000302E39005AFF414C54004241434B53A8
:1022020050414345004553430054414200454E541A
:1022120045520053504143450053484946540055E6
:10222200534220545950455752495445520056453D
:10223200520043414C4942524154494E470054597D
:1022420050452054484520464F4C4C4F57494E4725
:10225200204B4559530044454C455445004C454696
:102262005400524947485400555000444F574E00BD
:102272005345434F4E4441525920454E5445520016
:1022820043414C4942524154494F4E0053415645F5
:0C22920044002000D1020000FFFFFFFF0D
:00000001FF
