:100000000C94AC000C9429020C94D4000C94D400F1
:100010000C94D4000C94D4000C94D4000C94D40010
:100020000C94D4000C94150F0C94D4000C94D400B0
:100030000C94D4000C94D4000C94D4000C94D400F0
:100040000C94450F0C94D4000C94D4000C94D40060
:100050000C94D4000C94D4000C94D4000C94D400D0
:100060000C94D4000C94D4000403090420037200FF
:1000700061006E006300690064006200610063005B
:100080006F006E002E0063006F006D0018035500B6
:10009000730062004B006500790062006F00610030
:1000A000720064001201100100000008424231E1B8
:1000B0000001010200010902220001010080320951
:1000C00004000001030000000921010100012223B6
:1000D000000705810308000A05010906A1010507BB
:1000E00019E029E71500250175019508810295039E
:1000F00075082565190029658100C00000000024ED
:100100000027002A0000000000250028002B000026
:100110000000002300260029000404040404040451
:1001200004020202020202030303030303010204A6
:100130000810204080010204081020010204081069
:100140002000000007000201000003040600000078
:10015000000000000000F50411241FBECFEFD8E01E
:10016000DEBFCDBF11E0A0E0B1E0E8E9F1E202C0FE
:1001700005900D92AC39B107D9F712E0ACE9B1E0C6
:1001800001C01D92A13CB107E1F711E0C8E5D1E043
:1001900004C02297FE010E94C610C635D107C9F7D8
:1001A0000E940E0F0C94CA100C940000E9E6F0E0D7
:1001B000808182608083E89A8BE48093C5018AE520
:1001C0008093C40108951F93CF93DF939091B6015C
:1001D000935097FDA6C02091B2018091B8018D3255
:1001E00009F09DC0983009F09AC0CCE0D0E0C21B65
:1001F000D109C456DE4F83EC8093B9018AE5809320
:1002000005011092D2018881807629F0CE010E94EA
:10021000CD04282F7BC09A811092C2018981882346
:1002200021F41092C30122E06BC0853019F4909341
:10023000B40165C0863009F04EC08B81813041F435
:1002400084EA90E09093D1018093D00122E13FC0F5
:10025000823041F486EB90E09093D1018093D001FD
:1002600022E235C08330F1F4992341F488E690E02E
:100270009093D1018093D00124E029C0913041F4C2
:100280008CE690E09093D1018093D00120E21FC0D2
:100290009230E1F48CE890E09093D1018093D0010A
:1002A00028E115C0813241F488EC90E09093D101AF
:1002B0008093D00129E00BC0823241F488ED90E0B8
:1002C0009093D1018093D00123E201C020E080E42B
:1002D0008093D2011BC0883021F421E085EB91E0AE
:1002E00011C0893019F49093B50109C08A3011F416
:1002F00021E006C08B3019F48BE48093C50120E027
:1003000082EC91E09093D1018093D0018F8188237A
:1003100021F48E81821708F4282F20930601109271
:10032000B6018091050184FF4AC0809106018F3F8C
:1003300009F445C0182F893008F018E0811B80931C
:1003400006018091B90198E889278093B9011123AA
:1003500041F12091D0013091D1018091D20186FFED
:100360000DC0AAEBB1E080E090E0F901E80FF91FC1
:10037000E491ED9301961817C1F708C0912FD901A8
:10038000EAEBF1E08D9181939150E1F71150812FCB
:1003900090E01F5F0196820F931F9093D10180938D
:1003A000D0018AEB91E0612F0E942502612F6C5FE2
:1003B0006C3019F08FEF809306016093050194E192
:1003C00089B1847131F49150D9F71092B40110922F
:1003D000B301DF91CF911F9108951F93DC01162F78
:1003E0008091C40184FF07C08091C50198E88927E6
:1003F0008093C50103C08AE58093C401912FE6EC88
:10040000F1E08D91819391501916DCF386EC91E027
:10041000612F0E9425021C5F1093C4011F91089553
:10042000A82FB92F80E090E041E050EA609530E0DD
:1004300009C02D9182279795879510F084279527DD
:10044000305EC8F36F5FA8F30895EADF8D939D9344
:100450000895CF93CFB7CF93DF93C3954C9BE9F724
:100460004C9B0BC04C9B09C04C9B07C04C9B05C0D0
:100470004C9B03C04C9B01C08BC06F93C091B201D9
:10048000DD27C456DE4F2F9365E54C9B03C02F91AB
:100490006F91E6CF0F931F934F9320E040E15F935E
:1004A00009B1047104FB27F93F9350E03BE039C0E8
:1004B000147140642F77012F5F5F1EC0406819B12F
:1004C00014712F7752501FC0406409B12F77047107
:1004D000D1F15F5F00C023C0406219B12F77147162
:1004E00091F15F5F00C025C004711027515012F4D4
:1004F0005D5F0000115027952C3F19B1C8F61471AB
:100500000127015027952C3FC8F64227499309B18E
:10051000047110274F73115027952C3FA8F646956C
:10052000469519B1147179F00127015027952C3F98
:1005300098F66B5A60F3315009B1B0F600C011E083
:100540001CBB002719C03B503195C31BD04011E0A4
:100550001CBB0881033C09F10B34F9F02091B30175
:100560001981110F1213EDCF4A81441F093651F141
:100570000D3211F0013E29F70093B7013F915F91D1
:100580004F911F910F912F916F91CCB3C0FD65CF0B
:10059000DF91CF91CFBFCF9118952091B701222342
:1005A00069F31091B601112391F5343092F1309333
:1005B000B6012093B8011091B2013BE0311B30939A
:1005C000B20127C00091B60101300CF50AE54F7069
:1005D00049F43091050134FD1DC000930501C9EBBC
:1005E000D1E01CC03091C40134FD14C00093C4019B
:1005F000C5ECD1E013C0052710E000C000000BB926
:100600001AC0052710E0221F1DC010E021C04AE5D6
:1006100002C032ED432FC4E1D0E032E01AB11461E0
:100620005C9A0BB11AB954E120E865E320FF052775
:100630000BB9279517951C3FF0F66695B8F7B1F7FB
:1006400020FF05270BB9279517951C3FD0F6279556
:10065000179517FF052700001C3F0BB9B0F629912D
:100660003A9519F70B7E1091B401110FC651D04085
:100670000BB911F01093B30111E01CBB00611AB16A
:100680001B7E402F4B7E54E05A95F1F70BB91AB9F7
:100690004BB974CFCF93DF93BC018230910510F436
:1006A00062E070E0A091BF02B091C002ED01E0E015
:1006B000F0E040E050E021C08881998186179707DB
:1006C00069F48A819B81309719F09383828304C0F7
:1006D0009093C0028093BF02FE0134C0681779076F
:1006E00038F44115510519F08417950708F4AC0149
:1006F000FE018A819B819C01E9012097E9F6411561
:100700005105A9F1CA01861B970B049708F4BA0199
:10071000E0E0F0E02AC08D919C9111978417950735
:10072000F9F46417750781F412968D919C911397D3
:10073000309719F09383828304C09093C002809312
:10074000BF02FD0132964CC0CA01861B970BFD010A
:10075000E80FF91F6193719302978D939C9340C0AA
:10076000FD01828193819C01D9011097A1F68091AE
:10077000BD029091BE02892B41F480919401909129
:1007800095019093BE028093BD02409196015091D5
:1007900097014115510541F44DB75EB78091920123
:1007A00090919301481B590B2091BD023091BE02DC
:1007B000CA01821B930B8617970780F0AB014E5F2F
:1007C0005F4F8417950750F0420F531F5093BE029E
:1007D0004093BD02F9016193719302C0E0E0F0E043
:1007E000CF01DF91CF910895CF93DF93009709F464
:1007F00050C0EC0122971B821A82A091BF02B091D7
:10080000C002109709F140E050E0AC17BD0708F1B5
:10081000BB83AA83FE0121913191E20FF31FAE1732
:10082000BF0779F48D919C911197280F391F2E5F86
:100830003F4F3983288312968D919C9113979B8308
:100840008A834115510571F4D093C002C093BF0251
:1008500020C012968D919C911397AD01009711F0D5
:10086000DC01D3CFFA01D383C28321913191E20F0E
:10087000F31FCE17DF0769F488819981280F391F8C
:100880002E5F3F4FFA01318320838A819B819383BE
:100890008283DF91CF910895FB01DC0141505040EC
:1008A00048F001900D920020C9F701C01D924150FF
:1008B0005040E0F70895F999FECF72BD61BDF89AF6
:1008C00080B50895F999FECF1FBA72BD61BD40BDD4
:1008D0000FB6F894FA9AF99A0FBE0895FC0177FDC5
:1008E0000CC0828193816817790738F40190F081F8
:1008F000E02DE60FF71F8081089580E00895FC0148
:10090000808191810E94F40308950F931F938C01BD
:10091000FB0101900020E9F73197E61BF70BDC01A2
:100920001396FC93EE93129731968D919C91AF01A3
:100930000E944C04D801ED91FC91119712968D9173
:100940009C911397E80FF91F10821F910F91089542
:100950000F931F93CF93DF93EC018B01611571050A
:1009600011F400E011E0F80101900020E9F731975F
:10097000E01BF10BFB83EA833196FD83EC83CF010F
:100980000E944A0388839983CE01B8010E9485049E
:10099000DF91CF911F910F910895FC0184ED91E0BB
:1009A0009093D1018093D00180818076803251F480
:1009B0008181813039F0823029F08A3019F48381C5
:1009C0008093B30280E0089580E090E00000000092
:1009D0000000000000000000000000000000000017
:1009E00001968436910591F708951BB88AB18B6EF4
:1009F0008AB9F89455985D98559A5D9A0E94D600E8
:100A000078941092D4011092D5011092D6011092D0
:100A1000D70184ED91E064E00E94ED010895CF9349
:100A2000DF93EC018091C40184FFFCCF188219820E
:100A30001A821B8248836983CE0164E00E94ED0123
:100A40008091C40184FFFCCF188219821A821B8214
:100A5000CE0164E00E94ED01DF91CF9108950F93E4
:100A60001F93082F162F1092B2021092B10280919C
:100A7000B1029091B202892BD1F30E94E4041123B8
:100A800029F484ED91E0602F40E004C084ED91E012
:100A9000602F412F0E940F051092B2021092B102F6
:100AA0008091B1029091B2020597D0F31092B202F8
:100AB0001092B1021F910F9108951F93182F109259
:100AC000B2021092B1028091B1029091B202892BD0
:100AD000D1F30E94E40484ED91E0612F40E00E9494
:100AE0000F051092B2021092B1028091B102909162
:100AF000B2020597D0F31092B2021092B1021F9188
:100B00000895CF93DF93C0E0D0E083ED91E0BE0184
:100B10000E945B04FE01EF51FE4F80832196C43694
:100B2000D10599F71092DC01C4E6D0E083ED91E0A5
:100B3000BE010E945B04FE01EF51FE4F80832196AF
:100B4000C83CD10599F783ED91E062ED70E00E9419
:100B50005B048093DE011092DF0183ED91E063ED91
:100B600070E00E945B041092E001882319F081E09C
:100B70008093E0011092DC01DF91CF9108951F93E3
:100B8000182F00000000000000000000000000001E
:100B900000000000000061E00E94F50F000000006E
:100BA0000000000000000000000000000000000045
:100BB000812F60E00E94F50F00000000000000009F
:100BC0000000000000000000000000001F910895D8
:100BD0008CE061E00E94F50F8DE090E00E94BF057F
:100BE0008CE060E00E94F50F000000000895EF9295
:100BF000FF920F931F93CF93DF93C0E0D0E0FF24C9
:100C0000EE24E39403C0FF24C0E0D0E00E94E80596
:100C100000E011E08DE090E00E94BF0586E00E94B8
:100C20004210019709F4012F1F5F1F3599F7002328
:100C300019F4E092DD0102C01092DD0187E00E940C
:100C400042102091AD0230E08217930739F0809175
:100C5000DE019091DF01079709F000E688E00E942D
:100C600042102091AE0230E08217930739F0809154
:100C7000DE019091DF01089709F001E68AE00E9409
:100C800042102091AF0230E08217930739F0809133
:100C9000DE019091DF010A9709F002E68BE00E94E5
:100CA00042102091B00230E08217930741F080910A
:100CB000DE019091DF010B9711F003E602C00023E3
:100CC00029F00F1519F42196F02E13C08091A90276
:100CD0009091AA0225E7803392072CF40196909315
:100CE000AA028093A902002309F48DCFF02EC0E060
:100CF000D0E08091AB0290E0C817D9070CF486CF02
:100D0000802FDF91CF911F910F91FF90EF90089569
:100D1000EF92FF920F931F93DF93CF930F92CDB774
:100D2000DEB719821092AA021092A9020E94F7055A
:100D3000E82E082F10E0F801EF51FE4FF08081E11E
:100D40000E944210892B19F48981816089838091E6
:100D5000DE010E9442102091E00130E082179307EB
:100D600019F089818260898380E10E944210892B79
:100D700059F40B5B1D4FD801EC91EE2311F0FE2EC0
:100D800003C0898184608983BAEFFB1629F48981C5
:100D9000826089838FE1F82E8FE00E944210892BB8
:100DA00019F4898188608983EE2009F447C08E2D6B
:100DB00064E60E949110092F10E0903610F18091A6
:100DC0009A0190919B010817190751F48091AC0288
:100DD00090E02091A9023091AA028217930724F48F
:100DE0008F2D69810E942F0510939B0100939A011A
:100DF0008091DD01882311F11092990110929801E0
:100E00001DC080919801909199010817190751F41C
:100E10008091AC0290E02091A9023091AA02821741
:100E2000930724F48F2D69810E942F051093990157
:100E30000093980110929B0110929A010F90CF910C
:100E4000DF911F910F91FF90EF900895CF93DF9363
:100E50001092DB011092DC011092DA011092D9019C
:100E600081E10E944210892B91F58FE00E9442108F
:100E7000892B69F581E08093D80119C081E08093C6
:100E8000DA0115C080E10E944210892B21F481E033
:100E90008093D9010CC081E10E944210892B21F47A
:100EA00081E08093DB0103C081E08093DC018CE072
:100EB00060E00E94F50FC1EED1E08DE090E00E946D
:100EC000BF05199282E0C93AD807B9F706C08FE08A
:100ED0000E944210892B91F2D5CFDF91CF910895D6
:100EE0000F931F93CF93DF938C01C0E0D0E005C038
:100EF00088EE93E00E948D0F2196C017D107C0F3B2
:100F0000DF91CF911F910F910895EEE6F0E080817F
:100F10001082F89455985D988AEF90E00E947007CF
:100F2000559A5D9A789408958CE061E00E94D50FFF
:100F30008DE061E00E94D50F86E060E00E94D50F51
:100F400087E060E00E94D50F88E060E00E94D50F46
:100F50008AE060E00E94D50F8BE060E00E94D50F30
:100F600081E160E00E94D50F80E160E00E94D50F32
:100F70008FE060E00E94D50F81E161E00E94F50FF3
:100F800080E161E00E94F50F8FE061E00E94F50FC3
:100F900087E061E00E94F50F88E061E00E94F50FB4
:100FA0008AE061E00E94F50F8BE061E00E94F50F9E
:100FB000000087E00E9442101092AD02892B19F0C8
:100FC00081E08093AD0288E00E9442101092AE0250
:100FD000892B19F081E08093AE028AE00E944210D2
:100FE0001092AF02892B19F081E08093AF028BE061
:100FF0000E9442101092B002892B19F081E0809378
:10100000B002089581E090E00E9470070E9494076A
:101010008DE061E00E94F50F0E9426070E9485077F
:101020001092B00087E08093B10081E0809370005F
:101030008093B2001092B2021092B10283ED91E05F
:1010400065EF70E00E945B048093AB0281508E3F9D
:1010500050F08AE08093AB0283ED91E065EF70E0A1
:101060004AE00E94620483ED91E064EF70E00E9428
:101070005B048093AC0281508E3F50F08AE08093F5
:10108000AC0283ED91E064EF70E04AE00E946204FC
:101090008091B1029091B202883C9105C8F3089505
:1010A000EF92FF920F931F93CF93DF938C01FC017C
:1010B000E280F3801092B2021092B1028091B102EC
:1010C0009091B2020297D0F3C0E0D0E011C0C80105
:1010D000BE010E946E04803219F48CE290E004C0DC
:1010E000992787FD9095CD9762E00E942F05219664
:1010F000EC16FD0664F71092B2021092B1028091D4
:10110000B1029091B2020297D0F3DF91CF911F917B
:101110000F91FF90EF900895CF92DF92EF92FF92A0
:101120000F931F93DF93CF9300D000D000D0CDB7A3
:10113000DEB79C016AE070E00E949D106C01281BE4
:10114000390BC90164E670E00E949D106AE070E00E
:101150000E949D107B011092B2021092B102809108
:10116000B1029091B2020297D0F386EF9FEFAC01EB
:10117000E49EC001E59E900DF49E900D1124820F17
:10118000931F64E670E00E949D10672B91F08E0122
:101190000F5F1F4FC80167E071E00E94A804C801FB
:1011A0000E945008C8010E947F048EE262E00E9403
:1011B0002F051092B2021092B1028091B10290916B
:1011C000B2020297D0F3E114F10419F08E2D835E80
:1011D00001C087E260E00E942F051092B2021092D7
:1011E000B1028091B1029091B2020297D0F3C11482
:1011F000D10419F08C2D835E01C087E260E00E946B
:101200002F051092B2021092B1028091B10290911A
:10121000B2020297D0F326960FB6F894DEBF0FBE47
:10122000CDBFCF91DF911F910F91FF90EF90DF9095
:10123000CF9008951F93CF93DF93182F0E94F70547
:10124000C82FD0E02097D1F380E10E944210892B73
:1012500041F4CE018C599F4FFC01EF51FE4F10839A
:1012600005C0FE01EF51FE4F1083CE010E948C0895
:101270001092B2021092B1028091B1029091B2022A
:101280004E97D0F31092B2021092B102DF91CF913B
:101290001F91089586E162E00E942F0588E062E0D8
:1012A0000E942F0581E162E00E942F0586E162E045
:1012B0000E942F0588E062E00E942F058CE262E028
:1012C0000E942F0587E162E00E942F058CE062E01A
:1012D0000E942F0580E162E00E942F0588E062E015
:1012E0000E942F0583E362E00E942F0537C081E151
:1012F0000E944210892BD1F48091AB028A3010F405
:101300008F5F01C08B5F8093AB0283ED91E065EF4F
:1013100070E04091AB020E9462048091AB0290E0C9
:101320000E948C0888E260E00E942F0580E10E9404
:101330004210892BE1F48091AB02882339F08B3085
:1013400010F4815001C085508093AB0283ED91E091
:1013500065EF70E04091AB020E9462048091AB02A5
:1013600090E00E948C0888E260E00E942F058FE0E8
:101370000E944210019709F4BACF87E062E00E9410
:101380002F0582E162E00E942F0588E162E00E9461
:101390002F0585E062E00E942F058FE062E00E9449
:1013A0002F0588E062E00E942F058CE262E00E9437
:1013B0002F0587E162E00E942F0584E062E00E9431
:1013C0002F0583E162E00E942F058CE262E00E941B
:1013D0002F0587E162E00E942F058CE062E00E9409
:1013E0002F0580E162E00E942F0588E062E00E9404
:1013F0002F0583E362E00E942F0537C081E10E9440
:101400004210892BD1F48091AC028A3010F48F5FA6
:1014100001C08B5F8093AC0283ED91E064EF70E0DC
:101420004091AC020E9462048091AC0290E00E9464
:101430008C0888E260E00E942F0580E10E94421043
:10144000892BE1F48091AC02882339F08B3010F4C1
:10145000815001C085508093AC0283ED91E064EF30
:1014600070E04091AC020E9462048091AC0290E076
:101470000E948C0888E260E00E942F058FE00E94A5
:101480004210019709F4BACF82E162E00E942F0571
:101490008EE062E00E942F0588E260E00E942F0546
:1014A0001092D90181E08093DC010895AF92BF9240
:1014B000CF92DF92EF92FF920F931F93DF93CF9320
:1014C000CDB7DEB7A4970FB6F894DEBF0FBECDBF81
:1014D0008E010F5F1F4FC8016BE071E00E94A804EE
:1014E000C8010E945008C8010E947F0483E362E0A3
:1014F0000E942F058AE20E941A0988E20E945D0577
:101500008E01095F1F4FC80165E171E00E94A804C8
:10151000C8010E945008C8010E947F0483E362E072
:101520000E942F0589E20E941A0988E20E945D0547
:101530008E01035F1F4FC80169E171E00E94A8049A
:10154000C8010E945008C8010E947F0483E362E042
:101550000E942F058BE20E941A0988E20E945D0515
:101560008E010D5E1F4FC8016DE171E00E94A8045D
:10157000C8010E945008C8010E947F0483E362E012
:101580000E942F0588E20E941A0988E20E945D05E8
:101590008E01075E1F4FC80163E271E00E94A8043C
:1015A000C8010E945008C8010E947F0483E362E0E2
:1015B0000E942F058CE20E941A0988E20E945D05B4
:1015C0008E01015E1F4FC80169E271E00E94A8040C
:1015D000C8010E945008C8010E947F0483E362E0B2
:1015E0000E942F0537E0A32EB12C28E0C22ED12C6B
:1015F0009AE0E92EF12C0BE010E040C087E00E9459
:1016000042104091AD02242F30E08217930731F051
:10161000B092DF01A092DE014093E00188E00E94D9
:1016200042104091AE02242F30E08217930731F030
:10163000D092DF01C092DE014093E0018AE00E9477
:1016400042104091AF02242F30E08217930731F00F
:10165000F092DF01E092DE014093E0018BE00E9416
:1016600042104091B002242F30E08217930731F0EE
:101670001093DF010093DE014093E0018091DE01D1
:101680009091DF01892B09F4B9CF88E20E945D05B2
:1016900000E610E0F801EF51FE4F83ED91E0B80154
:1016A00040810E9462040F5F1F4F0436110591F7BD
:1016B00083ED91E062ED70E04091DE010E946204F2
:1016C00083ED91E063ED70E04091E0010E946204DF
:1016D0001092D801A4960FB6F894DEBF0FBECDBF0E
:1016E000CF91DF911F910F91FF90EF90DF90CF90FE
:1016F000BF90AF9008950F931F93DF93CF93CDB713
:10170000DEB768970FB6F894DEBF0FBECDBF8E016F
:101710000F5F1F4FC8016FE271E00E94A804C8016B
:101720000E945008C8010E947F0486E262E00E9485
:101730002F0587E162E00E942F0580E162E00E94B0
:101740002F0587E262E00E942F0588E20E945D0576
:101750008E01095F1F4FC8016EE371E00E94A8046B
:10176000C8010E945008C8010E947F048CE262E018
:101770000E942F0581E260E00E942F0587E360E070
:101780000E942F058EE160E00E942F0588E20E94F2
:101790005D058E01035F1F4FC80162E471E00E9486
:1017A000A804C8010E945008C8010E947F0487E372
:1017B0000E945D0587E30E945D0587E30E945D0549
:1017C00088E260E00E942F058E010D5E1F4FC80168
:1017D0006EE471E00E94A804C8010E945008C8018C
:1017E0000E947F0487E360E00E942F0587E360E0AA
:1017F0000E942F0587E360E00E942F0588E20E9487
:101800005D0568960FB6F894DEBF0FBECDBFCF91D1
:10181000DF911F910F910895AF92BF92CF92DF9207
:10182000EF92FF920F931F93DF93CF93CDB7DEB765
:10183000CE54D0400FB6F894DEBF0FBECDBF0E948D
:101840007B0B14E0812F0E945D0583E362E00E9420
:101850002F05812F0E941A0988E20E945D051F5FF3
:101860001E3181F7812F0E945D0583E362E00E94B3
:101870002F05812F0E941A0988E20E945D051F5FD3
:10188000183281F787E30E945D0583E362E00E94DE
:101890002F0587E30E941A0988E20E945D0586E30E
:1018A0000E945D0583E362E00E942F0586E30E94AB
:1018B0001A0988E20E945D0588E30E945D0583E3C2
:1018C00062E00E942F0588E30E941A0988E20E94C4
:1018D0005D0583E30E945D0583E362E00E942F05BE
:1018E00083E30E941A0988E20E945D0584E30E9456
:1018F0005D0583E362E00E942F0584E30E941A09DC
:1019000088E20E945D058E010F5F1F4FC80166E6E9
:1019100071E00E94A804C8010E945008C8010E94FA
:101920007F0483E362E00E942F058CE40E941A0981
:1019300088E20E945D058DE20E945D0583E362E01E
:101940000E942F058DE20E941A0988E20E945D051F
:101950008EE20E945D0583E362E00E942F058EE225
:101960000E941A0988E20E945D0581E30E945D05DC
:1019700083E362E00E942F0581E30E941A0988E256
:101980000E945D058FE20E945D0583E362E00E9494
:101990002F058FE20E941A0988E20E945D0580E30C
:1019A0000E945D0583E362E00E942F0580E30E94B0
:1019B0001A0988E20E945D0585E362E00E942F0516
:1019C00083E362E00E942F0585E30E941A0988E202
:1019D0000E945D058E01095F1F4FC8016DE671E031
:1019E0000E94A804C8010E945008C8010E947F04F8
:1019F00083E362E00E942F0580E50E941A0988E2D5
:101A00000E945D058E01035F1F4FC80162E771E010
:101A10000E94A804C8010E945008C8010E947F04C7
:101A200087E162E00E942F0583E362E00E942F05B8
:101A30008FE40E941A0988E20E945D058E010D5E06
:101A40001F4FC80168E771E00E94A804C8010E9406
:101A50005008C8010E947F0483E362E00E942F05C2
:101A600082E50E941A0988E20E945D058E01075EE8
:101A70001F4FC8016BE771E00E94A804C8010E94D3
:101A80005008C8010E947F0483E362E00E942F0592
:101A900081E50E941A0988E20E945D058FE162E0FB
:101AA0000E942F0583E362E00E942F058AEF0E94C7
:101AB0001A0988E20E945D0501E010E089E062E019
:101AC0000E942F05C8010E948C0883E362E00E94F7
:101AD0002F05802F875C0E941A0988E20E945D050D
:101AE0000F5F1F4F0D30110549F78E01015E1F4F2B
:101AF000C8016BE071E00E94A804C8010E94500870
:101B0000C8010E947F0483E362E00E942F058AE2FD
:101B10000E941A0988E20E945D058E010B5D1F4F2D
:101B2000C80165E171E00E94A804C8010E94500844
:101B3000C8010E947F0483E362E00E942F0589E2CE
:101B40000E941A0988E20E945D058E01055D1F4F03
:101B5000C80169E171E00E94A804C8010E94500810
:101B6000C8010E947F0483E362E00E942F058BE29C
:101B70000E941A0988E20E945D058E010F5C1F4FCA
:101B8000C8016DE171E00E94A804C8010E945008DC
:101B9000C8010E947F0483E362E00E942F0588E26F
:101BA0000E941A0988E20E945D058E01095C1F4FA0
:101BB000C80163E271E00E94A804C8010E945008B5
:101BC000C8010E947F0483E362E00E942F058CE23B
:101BD0000E941A0988E20E945D058E01035C1F4F76
:101BE000C80169E271E00E94A804C8010E9450087F
:101BF000C8010E947F0483E362E00E942F0567E032
:101C0000A62EB12C58E0C52ED12C4AE0E42EF12CA2
:101C10000BE010E040C087E00E9442104091AD020E
:101C2000242F30E08217930731F0B092DF01A092A9
:101C3000DE014093E00188E00E9442104091AE0234
:101C4000242F30E08217930731F0D092DF01C09249
:101C5000DE014093E0018AE00E9442104091AF0211
:101C6000242F30E08217930731F0F092DF01E092E9
:101C7000DE014093E0018BE00E9442104091B002EF
:101C8000242F30E08217930731F01093DF01009387
:101C9000DE014093E0018091DE019091DF01892B0C
:101CA00009F4B9CF88E20E945D058E010D5B1F4FDC
:101CB000C80160E871E00E94A804C8010E945008B1
:101CC000C8010E947F048CE20E945D058E01075BC3
:101CD0001F4FC8016CE871E00E94A804C8010E946F
:101CE0005008C8010E947F048EE162E00E942F0527
:101CF00088E20E945D0501E010E0F801EF51FE4F1F
:101D000083ED91E0B80140810E9462040F5F1F4F94
:101D1000093C110591F783ED91E062ED70E040918F
:101D2000DE010E94620483ED91E063ED70E040917A
:101D3000E0010E9462041092DB01C25BDF4F0FB62C
:101D4000F894DEBF0FBECDBFCF91DF911F910F91F1
:101D5000FF90EF90DF90CF90BF90AF9008950F93DA
:101D60001F93CF93DF938091DA018823A1F181E063
:101D700061E00E94D50F01E087E00E94421010E070
:101D8000892B09F011E088E00E944210892B09F0AC
:101D900010278AE00E944210892B09F010278BE05F
:101DA0000E944210892B09F01027112319F4C8EE64
:101DB000D3E002C0C4EFD1E081E061E00E94F50F02
:101DC000CE010E948D0F81E060E00E94F50FCE01F0
:101DD0000E948D0FD1CF8091D801882319F00E94E5
:101DE000560A17C08091DB01882319F00E940C0C61
:101DF00010C08091DC01882319F00E94810509C080
:101E00008091D901882319F00E944A0902C00E94DA
:101E10008806DF91CF911F910F9108950E949B0F2B
:101E20000E9402080E94AF0EFDCF1F920F920FB6C4
:101E30000F9211242F933F934F935F936F937F9350
:101E40008F939F93AF93BF93EF93FF938091B102D2
:101E50009091B20201969093B2028093B1020E94D7
:101E6000E30081E08093B200FF91EF91BF91AF91C9
:101E70009F918F917F916F915F914F913F912F91A2
:101E80000F900FBE0F901F9018951F920F920FB6D4
:101E90000F9211242F933F938F939F93AF93BF93F0
:101EA0008091B8029091B902A091BA02B091BB02A0
:101EB0003091BC020196A11DB11D232F2D5F2D373E
:101EC00020F02D570196A11DB11D2093BC028093D7
:101ED000B8029093B902A093BA02B093BB0280916A
:101EE000B4029091B502A091B602B091B7020196EA
:101EF000A11DB11D8093B4029093B502A093B602C8
:101F0000B093B702BF91AF919F918F913F912F9165
:101F10000F900FBE0F901F901895019759F0FC017C
:101F2000EE0FFF1FEE0FFF1F32978FB7F894319718
:101F3000F1F78FBF0895789484B5826084BD84B52D
:101F4000816084BD85B5826085BD85B5816085BDB4
:101F5000EEE6F0E0808181608083E1E8F0E080815E
:101F600082608083808181608083E0E8F0E080810E
:101F700081608083E1EBF0E0808184608083E0EB2E
:101F8000F0E0808181608083EAE7F0E08081846016
:101F90008083808182608083808181608083808172
:101FA000806880831092C1000895282F30E0C90115
:101FB000835D9E4FFC019491275E3E4FF901849111
:101FC000882391F0E82FF0E0EE0FFF1FE550FF4F60
:101FD000A591B491662329F48C91909589238C93D3
:101FE00008958C91892B8C930895482F50E0CA0155
:101FF0008F5B9E4FFC012491CA01835D9E4FFC01C3
:102000009491475E5E4FFA0134913323D1F122233C
:1020100031F1233021F4809180008F7705C0243086
:1020200031F4809180008F7D8093800018C0213032
:1020300019F484B58F7704C0223021F484B58F7DE4
:1020400084BD0DC0263021F48091B0008F7705C08B
:10205000273029F48091B0008F7D8093B000E32F6A
:10206000F0E0EE0FFF1FEB5FFE4FA591B4916623EA
:1020700029F48C91909589238C9308958C91892BC8
:102080008C930895682F70E0CB018F5B9E4FFC010D
:102090002491CB01835D9E4FFC014491675E7E4F8E
:1020A000FB019491992319F420E030E038C02223F9
:1020B00031F1233021F4809180008F7705C02430E6
:1020C00031F4809180008F7D8093800018C0213092
:1020D00019F484B58F7704C0223021F484B58F7D44
:1020E00084BD0DC0263021F48091B0008F7705C0EB
:1020F000273029F48091B0008F7D8093B000892F24
:1021000090E0880F991F815F9E4FFC01A591B491CB
:102110008C9120E030E0842311F021E030E0C9010F
:102120000895991B79E004C0991F961708F0961B33
:10213000881F7A95C9F78095089597FB092E072681
:102140000AD077FD04D00CD006D000201AF4709588
:1021500061957F4F0895F6F7909581959F4F08956B
:10216000AA1BBB1B51E107C0AA1FBB1FA617B707BD
:1021700010F0A61BB70B881F991F5A95A9F78095D9
:102180009095BC01CD010895EE0FFF1F0590F491CD
:08219000E02D0994F894FFCF43
:1021980000302E39005AFF414C54004241434B5302
:1021A80050414345004553430054414200454E5475
:1021B8004552005350414345005348494654005541
:1021C8005342205459504557524954455200564598
:1021D800520043414C4942524154494E47005459D8
:1021E80050452054484520464F4C4C4F57494E4780
:1021F800204B4559530044454C455445004C4546F1
:102208005400524947485400555000444F574E0017
:1022180043414C4942524154494F4E00534156455F
:0C22280044002000C1020000FFFFFFFF87
:00000001FF
