:100000000C94AC000C9429020C94D4000C94D400F1
:100010000C94D4000C94D4000C94D4000C94D40010
:100020000C94D4000C94BC0F0C94D4000C94D40009
:100030000C94D4000C94D4000C94D4000C94D400F0
:100040000C94EC0F0C94D4000C94D4000C94D400B9
:100050000C94D4000C94D4000C94D4000C94D400D0
:100060000C94D4000C94D4000403090420037200FF
:1000700061006E006300690064006200610063005B
:100080006F006E002E0063006F006D0018035500B6
:10009000730062004B006500790062006F00610030
:1000A000720064001201100100000008424231E1B8
:1000B0000001010200010902220001010080320951
:1000C00004000001030000000921010100012223B6
:1000D000000705810308000A05010906A1010507BB
:1000E00019E029E71500250175019508810295039E
:1000F00075082565190029658100C00000000024ED
:100100000027002A0000000000250028002B000026
:100110000000002300260029000404040404040451
:1001200004020202020202030303030303010204A6
:100130000810204080010204081020010204081069
:100140002000000007000201000003040600000078
:10015000000000000000F50411241FBECFEFD8E01E
:10016000DEBFCDBF11E0A0E0B1E0E6EEF2E202C0FA
:1001700005900D92A636B107D9F712E0A6E6B1E0D8
:1001800001C01D92AB38B107E1F711E0C8E5D1E03D
:1001900004C02297FE010E946D11C635D107C9F730
:1001A0000E94B50F0C9471110C940000E9E6F0E088
:1001B000808182608083E89A8BE480938F018AE556
:1001C00080938E0108951F93CF93DF9390918001C8
:1001D000935097FDA6C020917C01809182018D32C1
:1001E00009F09DC0983009F09AC0CCE0D0E0C21B65
:1001F000D109CA59DE4F83EC809383018AE580934D
:10020000050110929C018881807629F0CE010E9420
:10021000CD04282F7BC09A8110928C01898188237C
:1002200021F410928D0122E06BC0853019F4909377
:100230007E0165C0863009F04EC08B81813041F46B
:1002400084EA90E090939B0180939A0122E13FC061
:10025000823041F486EB90E090939B0180939A0169
:1002600022E235C08330F1F4992341F488E690E02E
:1002700090939B0180939A0124E029C0913041F42E
:100280008CE690E090939B0180939A0120E21FC03E
:100290009230E1F48CE890E090939B0180939A0176
:1002A00028E115C0813241F488EC90E090939B01E5
:1002B00080939A0129E00BC0823241F488ED90E0EE
:1002C00090939B0180939A0123E201C020E080E497
:1002D00080939C011BC0883021F421E08FE791E0DE
:1002E00011C0893019F490937F0109C08A3011F44C
:1002F00021E006C08B3019F48BE480938F0120E05D
:100300008CE891E090939B0180939A018F818823E0
:1003100021F48E81821708F4282F20930601109271
:1003200080018091050184FF4AC0809106018F3FC2
:1003300009F445C0182F893008F018E0811B80931C
:1003400006018091830198E8892780938301112316
:1003500041F120919A0130919B0180919C0186FF8F
:100360000DC0A4E8B1E080E090E0F901E80FF91FCA
:10037000E491ED9301961817C1F708C0912FD901A8
:10038000E4E8F1E08D9181939150E1F71150812FD4
:1003900090E01F5F0196820F931F90939B018093C3
:1003A0009A0184E891E0612F0E942502612F6C5F21
:1003B0006C3019F08FEF809306016093050194E192
:1003C00089B1847131F49150D9F710927E01109265
:1003D0007D01DF91CF911F9108951F93DC01162FAE
:1003E00080918E0184FF07C080918F0198E8892752
:1003F00080938F0103C08AE580938E01912FE0E9FD
:10040000F1E08D91819391501916DCF380E991E030
:10041000612F0E9425021C5F10938E011F91089589
:10042000A82FB92F80E090E041E050EA609530E0DD
:1004300009C02D9182279795879510F084279527DD
:10044000305EC8F36F5FA8F30895EADF8D939D9344
:100450000895CF93CFB7CF93DF93C3954C9BE9F724
:100460004C9B0BC04C9B09C04C9B07C04C9B05C0D0
:100470004C9B03C04C9B01C08BC06F93C0917C010F
:10048000DD27CA59DE4F2F9365E54C9B03C02F91A2
:100490006F91E6CF0F931F934F9320E040E15F935E
:1004A00009B1047104FB27F93F9350E03BE039C0E8
:1004B000147140642F77012F5F5F1EC0406819B12F
:1004C00014712F7752501FC0406409B12F77047107
:1004D000D1F15F5F00C023C0406219B12F77147162
:1004E00091F15F5F00C025C004711027515012F4D4
:1004F0005D5F0000115027952C3F19B1C8F61471AB
:100500000127015027952C3FC8F64227499309B18E
:10051000047110274F73115027952C3FA8F646956C
:10052000469519B1147179F00127015027952C3F98
:1005300098F66B5A60F3315009B1B0F600C011E083
:100540001CBB002719C03B503195C31BD04011E0A4
:100550001CBB0881033C09F10B34F9F020917D01AB
:100560001981110F1213EDCF4A81441F093651F141
:100570000D3211F0013E29F7009381013F915F9107
:100580004F911F910F912F916F91CCB3C0FD65CF0B
:10059000DF91CF91CFBFCF91189520918101222378
:1005A00069F310918001112391F5343092F1309369
:1005B00080012093820110917C013BE0311B30933C
:1005C0007C0127C00091800101300CF50AE54F70D5
:1005D00049F43091050134FD1DC000930501C3E8C5
:1005E000D1E01CC030918E0134FD14C000938E0107
:1005F000CFE8D1E013C0052710E000C000000BB920
:100600001AC0052710E0221F1DC010E021C04AE5D6
:1006100002C032ED432FC4E1D0E032E01AB11461E0
:100620005C9A0BB11AB954E120E865E320FF052775
:100630000BB9279517951C3FF0F66695B8F7B1F7FB
:1006400020FF05270BB9279517951C3FD0F6279556
:10065000179517FF052700001C3F0BB9B0F629912D
:100660003A9519F70B7E10917E01110FC651D040BB
:100670000BB911F010937D0111E01CBB00611AB1A0
:100680001B7E402F4B7E54E05A95F1F70BB91AB9F7
:100690004BB974CFCF93DF93BC018230910510F436
:1006A00062E070E0A0918902B0918A02ED01E0E081
:1006B000F0E040E050E021C08881998186179707DB
:1006C00069F48A819B81309719F09383828304C0F7
:1006D00090938A0280938902FE0134C068177907DB
:1006E00038F44115510519F08417950708F4AC0149
:1006F000FE018A819B819C01E9012097E9F6411561
:100700005105A9F1CA01861B970B049708F4BA0199
:10071000E0E0F0E02AC08D919C9111978417950735
:10072000F9F46417750781F412968D919C911397D3
:10073000309719F09383828304C090938A02809348
:100740008902FD0132964CC0CA01861B970BFD0140
:10075000E80FF91F6193719302978D939C9340C0AA
:10076000FD01828193819C01D9011097A1F68091AE
:10077000870290918802892B41F480915D019091CC
:100780005E01909388028093870240915F015091AF
:1007900060014115510541F44DB75EB780915B0191
:1007A00090915C01481B590B20918702309188027F
:1007B000CA01821B930B8617970780F0AB014E5F2F
:1007C0005F4F8417950750F0420F531F50938802D4
:1007D00040938702F9016193719302C0E0E0F0E079
:1007E000CF01DF91CF910895CF93DF93009709F464
:1007F00050C0EC0122971B821A82A0918902B0910D
:100800008A02109709F140E050E0AC17BD0708F1EB
:10081000BB83AA83FE0121913191E20FF31FAE1732
:10082000BF0779F48D919C911197280F391F2E5F86
:100830003F4F3983288312968D919C9113979B8308
:100840008A834115510571F4D0938A02C0938902BD
:1008500020C012968D919C911397AD01009711F0D5
:10086000DC01D3CFFA01D383C28321913191E20F0E
:10087000F31FCE17DF0769F488819981280F391F8C
:100880002E5F3F4FFA01318320838A819B819383BE
:100890008283DF91CF910895FB01DC0141505040EC
:1008A00048F001900D920020C9F701C01D924150FF
:1008B0005040E0F70895F999FECF72BD61BDF89AF6
:1008C00080B50895F999FECF1FBA72BD61BD40BDD4
:1008D0000FB6F894FA9AF99A0FBE0895FC0177FDC5
:1008E0000CC0828193816817790738F40190F081F8
:1008F000E02DE60FF71F8081089580E00895FC0148
:10090000808191810E94F40308950F931F938C01BD
:10091000FB0101900020E9F73197E61BF70BDC01A2
:100920001396FC93EE93129731968D919C91AF01A3
:100930000E944C04D801ED91FC91119712968D9173
:100940009C911397E80FF91F10821F910F91089542
:100950000F931F93CF93DF93EC018B01611571050A
:1009600011F400E011E0F80101900020E9F731975F
:10097000E01BF10BFB83EA833196FD83EC83CF010F
:100980000E944A0388839983CE01B8010E9485049E
:10099000DF91CF911F910F910895FC018EE991E0B5
:1009A00090939B0180939A0180818076803251F4EC
:1009B0008181813039F0823029F08A3019F48381C5
:1009C00080937D0280E0089580E090E000000000C8
:1009D0000000000000000000000000000000000017
:1009E00001968436910591F708951BB88AB18B6EF4
:1009F0008AB9F89455985D98559A5D9A0E94D600E8
:100A0000789410929E0110929F011092A001109272
:100A1000A1018EE991E064E00E94ED010895CF9379
:100A2000DF93EC0180918E0184FFFCCF1882198244
:100A30001A821B8248836983CE0164E00E94ED0123
:100A400080918E0184FFFCCF188219821A821B824A
:100A5000CE0164E00E94ED01DF91CF9108950F93E4
:100A60001F93082F162F10927C0210927B02809108
:100A70007B0290917C02892BD1F30E94E404112324
:100A800029F48EE991E0602F40E004C08EE991E006
:100A9000602F412F0E940F0510927C0210927B0262
:100AA00080917B0290917C020597D0F310927C029A
:100AB00010927B021F910F9108951F93182F10928F
:100AC0007C0210927B0280917B0290917C02892BA8
:100AD000D1F30E94E4048EE991E0612F40E00E948E
:100AE0000F0510927C0210927B0280917B02909104
:100AF0007C020597D0F310927C0210927B021F912A
:100B0000089588E162E00E942F0586E162E00E947C
:100B10002F0585E062E00E942F058CE262E00E94D2
:100B20002F0587E162E00E942F058CE162E00E94C0
:100B30002F0583E162E00E942F0588E062E00E94B9
:100B40002F058AE162E00E942F0585E162E00E94A4
:100B50002F058CE062E00E942F0587E162E00E9491
:100B60002F0588E062E00E942F0585E162E00E9487
:100B70002F0586E262E00E942F0587E162E00E9475
:100B80002F0580E162E00E942F0587E262E00E946B
:100B90002F0588E20E945D0585E162E00E942F0535
:100BA00088E062E00E942F0589E162E00E942F0543
:100BB0008CE262E00E942F0580E260E00E942F0537
:100BC00087E360E00E942F0582E260E00E942F052B
:100BD00088E20E945D0585E062E00E942F058CE1BD
:100BE00062E00E942F058CE262E00E942F058DE0FA
:100BF00062E00E942F0584E062E00E942F0586E0FB
:100C000062E00E942F058EE062E00E942F058CE2D8
:100C100062E00E942F058DE162E00E942F058CE1C9
:100C200062E00E942F058FE062E00E942F058EE0B7
:100C300062E00E942F058CE062E00E942F0581E1B6
:100C400062E00E942F0588E20E945D0586E062E076
:100C50000E942F0584E062E00E942F058FE062E091
:100C60000E942F058CE062E00E942F0585E062E083
:100C70000E942F0585E162E00E942F0584E062E07A
:100C80000E942F0587E162E00E942F058CE062E060
:100C90000E942F0581E162E00E942F058AE062E058
:100CA0000E942F0587E30E945D0587E30E945D0592
:100CB00087E30E945D0588E260E00E942F0587E1DE
:100CC00062E00E942F058CE162E00E942F0583E123
:100CD00062E00E942F0588E062E00E942F058CE20E
:100CE00062E00E942F0587E162E00E942F058BE001
:100CF00062E00E942F0588E062E00E942F058CE2EE
:100D00000E945D0589E062E00E942F0582E162E0B9
:100D10000E942F058FE062E00E942F058FE062E0C5
:100D20000E942F0582E162E00E942F058AE162E0C5
:100D30000E942F058CE062E00E942F0581E162E0B5
:100D40000E942F058AE062E00E942F058CE20E943B
:100D50005D058EE062E00E942F0588E062E00E945F
:100D60002F058CE162E00E942F0586E162E00E947F
:100D70002F0583E362E00E942F0588E20E945D0553
:100D80000895CF93DF93C0E0D0E08DE991E0BE01FC
:100D90000E945B04FE01E555FE4F80832196C43618
:100DA000D10599F71092A601C4E6D0E08DE991E053
:100DB000BE010E945B04FE01E555FE4F8083219633
:100DC000C83CD10599F78DE991E062ED70E00E9491
:100DD0005B048093A8011092A9018DE991E063ED75
:100DE00070E00E945B041092AA01882319F081E050
:100DF0008093AA011092A601DF91CF9108951F93CD
:100E0000182F00000000000000000000000000009B
:100E100000000000000061E00E949C100000000043
:100E200000000000000000000000000000000000C2
:100E3000812F60E00E949C10000000000000000074
:100E40000000000000000000000000001F91089555
:100E50008CE061E00E949C108DE090E00E94FF0613
:100E60008CE060E00E949C10000000000895EF926A
:100E7000FF920F931F93CF93DF93C0E0D0E0FF2446
:100E8000EE24E39403C0FF24C0E0D0E00E942807D2
:100E900000E011E08DE090E00E94FF0686E00E94F5
:100EA000E910019709F4012F1F5F1F3599F70023FF
:100EB00019F4E092A70102C01092A70187E00E94F6
:100EC000E9102091770230E08217930739F0809182
:100ED000A8019091A901079709F000E688E00E9417
:100EE000E9102091780230E08217930739F0809161
:100EF000A8019091A901089709F001E68AE00E94F3
:100F0000E9102091790230E08217930739F080913F
:100F1000A8019091A9010A9709F002E68BE00E94CE
:100F2000E91020917A0230E08217930741F0809116
:100F3000A8019091A9010B9711F003E602C00023CC
:100F400029F00F1519F42196F02E13C08091730229
:100F50009091740225E7803392072CF401969093C8
:100F6000740280937302002309F48DCFF02EC0E049
:100F7000D0E08091750290E0C817D9070CF486CFB5
:100F8000802FDF91CF911F910F91FF90EF900895E7
:100F9000EF92FF920F931F93DF93CF930F92CDB7F2
:100FA000DEB7198210927402109273020E94370702
:100FB000E82E082F10E0F801E555FE4FF08081E1A2
:100FC0000E94E910892B19F48981816089838091BD
:100FD000A8010E94E9102091AA0130E0821793072E
:100FE00019F089818260898380E10E94E910892B50
:100FF00059F4015F1D4FD801EC91EE2311F0FE2E44
:1010000003C0898184608983BAEFFB1629F4898142
:10101000826089838FE1F82E8FE00E94E910892B8E
:1010200019F4898188608983EE2009F447C08E2DE8
:1010300064E60E943811092F10E0903610F180917B
:101040006301909164010817190751F480917602A9
:1010500090E020917302309174028217930724F478
:101060008F2D69810E942F05109364010093630105
:101070008091A701882311F1109262011092610101
:101080001DC080916101909162010817190751F408
:101090008091760290E02091730230917402821761
:1010A000930724F48F2D69810E942F05109362010C
:1010B0000093610110926401109263010F90CF912F
:1010C000DF911F910F91FF90EF900895CF93DF93E1
:1010D0001092A5011092A6011092A4011092A301F2
:1010E00081E10E94E910892B91F58FE00E94E910BF
:1010F000892B69F581E08093A20119C081E080937A
:10110000A40115C080E10E94E910892B21F481E03F
:101110008093A3010CC081E10E94E910892B21F486
:1011200081E08093A50103C081E08093A6018CE05B
:1011300060E00E949C10CBEAD1E08DE090E00E943C
:10114000FF06199282E0C337D807B9F706C08FE0CF
:101150000E94E910892B91F2D5CFDF91CF910895AC
:101160000F931F93CF93DF938C01C0E0D0E005C0B5
:1011700088EE93E00E9434102196C017D107C0F387
:10118000DF91CF911F910F910895EEE6F0E08081FD
:101190001082F89455985D988AEF90E00E94B0080C
:1011A000559A5D9A789408958CE061E00E947C10D5
:1011B0008DE061E00E947C1086E060E00E947C107F
:1011C00087E060E00E947C1088E060E00E947C1074
:1011D0008AE060E00E947C108BE060E00E947C105E
:1011E00081E160E00E947C1080E160E00E947C1060
:1011F0008FE060E00E947C1081E161E00E949C1021
:1012000080E161E00E949C108FE061E00E949C10F0
:1012100087E061E00E949C1088E061E00E949C10E1
:101220008AE061E00E949C108BE061E00E949C10CB
:10123000000087E00E94E91010927702892B19F0D4
:1012400081E08093770288E00E94E9101092780292
:10125000892B19F081E0809378028AE00E94E910DE
:1012600010927902892B19F081E0809379028BE04A
:101270000E94E91010927A02892B19F081E0809384
:101280007A02089581E090E00E94B0080E94D4089C
:101290008DE061E00E949C100E9466080E94C508D3
:1012A0001092B00087E08093B10081E080937000DD
:1012B0008093B20010927C0210927B028DE991E043
:1012C00065EF70E00E945B048093750281508E3F51
:1012D00050F08AE0809375028DE991E065EF70E04F
:1012E0004AE00E9462048DE991E064EF70E00E94A0
:1012F0005B048093760281508E3F50F08AE08093A9
:1013000076028DE991E064EF70E04AE00E946204A9
:1013100080917B0290917C02883C9105C8F30895EE
:10132000EF92FF920F931F93CF93DF938C01FC01F9
:10133000E280F38010927C0210927B0280917B020B
:1013400090917C020297D0F3C0E0D0E009C0C801C0
:10135000BE010E946E048D5362E00E942F0521960B
:10136000EC16FD06A4F710927C0210927B0280918D
:101370007B0290917C020297D0F3DF91CF911F9175
:101380000F91FF90EF900895CF92DF92EF92FF922E
:101390000F931F93DF93CF9300D000D000D0CDB731
:1013A000DEB79C016AE070E00E9444116C01281BCA
:1013B000390BC90164E670E00E9444116AE070E0F4
:1013C0000E9444117B0110927C0210927B0280915A
:1013D0007B0290917C020297D0F386EF9FEFAC01E5
:1013E000E49EC001E59E900DF49E900D1124820FA5
:1013F000931F64E670E00E944411672B91F08E0108
:101400000F5F1F4FC80167E071E00E94A804C80188
:101410000E949009C8010E947F048EE262E00E944F
:101420002F0510927C0210927B0280917B0290919A
:101430007C020297D0F3E114F10419F08E2D835E43
:1014400001C087E260E00E942F0510927C0210929A
:101450007B0280917B0290917C020297D0F3C114B1
:10146000D10419F08C2D835E01C087E260E00E94F8
:101470002F0510927C0210927B0280917B0290914A
:101480007C020297D0F326960FB6F894DEBF0FBE0B
:10149000CDBFCF91DF911F910F91FF90EF90DF9023
:1014A000CF9008951F93CF93DF93182F0E94370793
:1014B000C82FD0E02097D1F380E10E94E910892B5A
:1014C00041F4CE018C599F4FFC01E555FE4F10832E
:1014D00005C0FE01E555FE4F1083CE010E94C409F0
:1014E00010927C0210927B0280917B0290917C0290
:1014F0004E97D0F310927C0210927B02DF91CF9135
:101500001F91089586E162E00E942F0588E062E065
:101510000E942F0581E162E00E942F0586E162E0D2
:101520000E942F0588E062E00E942F058CE262E0B5
:101530000E942F0587E162E00E942F058CE062E0A7
:101540000E942F0580E162E00E942F0588E062E0A2
:101550000E942F0583E362E00E942F0537C081E1DE
:101560000E94E910892BD1F4809175028A3010F421
:101570008F5F01C08B5F809375028DE991E065EF0D
:1015800070E0409175020E9462048091750290E0C3
:101590000E94C40988E260E00E942F0580E10E9459
:1015A000E910892BE1F480917502882339F08B30A2
:1015B00010F4815001C08550809375028DE991E04F
:1015C00065EF70E0409175020E946204809175029F
:1015D00090E00E94C40988E260E00E942F058FE03D
:1015E0000E94E910019709F4BACF87E062E00E94F7
:1015F0002F0582E162E00E942F0588E162E00E94EF
:101600002F0585E062E00E942F058FE062E00E94D6
:101610002F0588E062E00E942F058CE262E00E94C4
:101620002F0587E162E00E942F0584E062E00E94BE
:101630002F0583E162E00E942F058CE262E00E94A8
:101640002F0587E162E00E942F058CE062E00E9496
:101650002F0580E162E00E942F0588E062E00E9491
:101660002F0583E362E00E942F0537C081E10E94CD
:10167000E910892BD1F4809176028A3010F48F5FC3
:1016800001C08B5F809376028DE991E064EF70E09A
:10169000409176020E9462048091760290E00E945E
:1016A000C40988E260E00E942F0580E10E94E910F1
:1016B000892BE1F480917602882339F08B3010F485
:1016C000815001C08550809376028DE991E064EFEE
:1016D00070E0409176020E9462048091760290E070
:1016E0000E94C40988E260E00E942F058FE00E94FA
:1016F000E910019709F4BACF82E162E00E942F0558
:101700008EE062E00E942F0588E260E00E942F05D3
:101710001092A30181E08093A6010895AF92BF9239
:10172000CF92DF92EF92FF920F931F93DF93CF93AD
:10173000CDB7DEB7CE54D0400FB6F894DEBF0FBEA3
:10174000CDBF0E94810514E0812F0E945D0583E3D7
:1017500062E00E942F05812F0E94520A88E20E94B7
:101760005D051F5F1E3181F7812F0E945D0583E3B8
:1017700062E00E942F05812F0E94520A88E20E9497
:101780005D051F5F183281F787E30E945D0583E3E3
:1017900062E00E942F0587E30E94520A88E20E94BD
:1017A0005D0586E30E945D0583E362E00E942F05EC
:1017B00086E30E94520A88E20E945D0588E30E9447
:1017C0005D0583E362E00E942F0588E30E94520AD0
:1017D00088E20E945D0583E30E945D0583E362E089
:1017E0000E942F0583E30E94520A88E20E945D0551
:1017F00084E30E945D0583E362E00E942F0584E399
:101800000E94520A88E20E945D058E010F5F1F4F01
:10181000C8016BE071E00E94A804C8010E94900911
:10182000C8010E947F0483E362E00E942F058CE4DC
:101830000E94520A88E20E945D058DE20E945D05C9
:1018400083E362E00E942F058DE20E94520A88E243
:101850000E945D058EE20E945D0583E362E00E94C6
:101860002F058EE20E94520A88E20E945D0581E304
:101870000E945D0583E362E00E942F0581E30E94E0
:10188000520A88E20E945D058FE20E945D0583E3B3
:1018900062E00E942F058FE20E94520A88E20E94B5
:1018A0005D0580E30E945D0583E362E00E942F05F1
:1018B00080E30E94520A88E20E945D0585E362E0AF
:1018C0000E942F0583E362E00E942F0585E30E94BA
:1018D000520A88E20E945D058E01095F1F4FC80110
:1018E00062E171E00E94A804C8010E949009C80149
:1018F0000E947F0483E362E00E942F0580E50E943E
:10190000520A88E20E945D058E01035F1F4FC801E5
:1019100067E171E00E94A804C8010E949009C80113
:101920000E947F0487E162E00E942F0583E362E06A
:101930000E942F058FE40E94520A88E20E945D05F2
:101940008E010D5E1F4FC8016DE171E00E94A80479
:10195000C8010E949009C8010E947F0483E362E0ED
:101960000E942F0582E50E94520A88E20E945D05CE
:101970008E01075E1F4FC80160E271E00E94A8045B
:10198000C8010E949009C8010E947F0483E362E0BD
:101990000E942F0581E50E94520A88E20E945D059F
:1019A0008FE162E00E942F0583E362E00E942F0531
:1019B0008AEF0E94520A88E20E945D0501E010E071
:1019C00089E062E00E942F05C8010E94C40983E3F8
:1019D00062E00E942F05802F875C0E94520A88E2F5
:1019E0000E945D050F5F1F4F0D30110549F78E01F5
:1019F000015E1F4FC80165E271E00E94A804C801A2
:101A00000E949009C8010E947F0483E362E00E9463
:101A10002F058AE20E94520A88E20E945D058E012B
:101A20000B5D1F4FC8016FE271E00E94A804C8015E
:101A30000E949009C8010E947F0483E362E00E9433
:101A40002F0589E20E94520A88E20E945D058E01FC
:101A5000055D1F4FC80163E371E00E94A804C8013F
:101A60000E949009C8010E947F0483E362E00E9403
:101A70002F058BE20E94520A88E20E945D058E01CA
:101A80000F5C1F4FC80167E371E00E94A804C80102
:101A90000E949009C8010E947F0483E362E00E94D3
:101AA0002F0588E20E94520A88E20E945D058E019D
:101AB000095C1F4FC8016DE371E00E94A804C801D2
:101AC0000E949009C8010E947F0483E362E00E94A3
:101AD0002F058CE20E94520A88E20E945D058E0169
:101AE000035C1F4FC80163E471E00E94A804C801B1
:101AF0000E949009C8010E947F0483E362E00E9473
:101B00002F0537E0A32EB12C28E0C22ED12C9AE06D
:101B1000E92EF12C0BE010E040C087E00E94E910B4
:101B200040917702242F30E08217930731F0B09272
:101B3000A901A092A8014093AA0188E00E94E9109F
:101B400040917802242F30E08217930731F0D09231
:101B5000A901C092A8014093AA018AE00E94E9105D
:101B600040917902242F30E08217930731F0F092F0
:101B7000A901E092A8014093AA018BE00E94E9101C
:101B800040917A02242F30E08217930731F01093AE
:101B9000A9010093A8014093AA018091A801909106
:101BA000A901892B09F4B9CF88E20E945D058E0155
:101BB0000D5B1F4FC80169E471E00E94A804C801D1
:101BC0000E949009C8010E947F048CE20E945D057A
:101BD0008E01075B1F4FC80165E571E00E94A804F4
:101BE000C8010E949009C8010E947F048EE162E052
:101BF0000E942F0588E20E945D0501E010E0F801D7
:101C0000E555FE4F8DE991E0B80140810E946204E4
:101C10000F5F1F4F093C110591F78DE991E062EDCF
:101C200070E04091A8010E9462048DE991E063EDAB
:101C300070E04091AA010E9462041092A501C25B6B
:101C4000DF4F0FB6F894DEBF0FBECDBFCF91DF914F
:101C50001F910F91FF90EF90DF90CF90BF90AF90CA
:101C60000895AF92BF92CF92DF92EF92FF920F93BF
:101C70001F93DF93CF93CDB7DEB7A4970FB6F89439
:101C8000DEBF0FBECDBF8E010F5F1F4FC80165E2E3
:101C900071E00E94A804C8010E949009C8010E9436
:101CA0007F0483E362E00E942F058AE20E94520AC9
:101CB00088E20E945D058E01095F1F4FC8016FE237
:101CC00071E00E94A804C8010E949009C8010E9406
:101CD0007F0483E362E00E942F0589E20E94520A9A
:101CE00088E20E945D058E01035F1F4FC80163E318
:101CF00071E00E94A804C8010E949009C8010E94D6
:101D00007F0483E362E00E942F058BE20E94520A67
:101D100088E20E945D058E010D5E1F4FC80167E3DA
:101D200071E00E94A804C8010E949009C8010E94A5
:101D30007F0483E362E00E942F0588E20E94520A3A
:101D400088E20E945D058E01075E1F4FC8016DE3AA
:101D500071E00E94A804C8010E949009C8010E9475
:101D60007F0483E362E00E942F058CE20E94520A06
:101D700088E20E945D058E01015E1F4FC80163E489
:101D800071E00E94A804C8010E949009C8010E9445
:101D90007F0483E362E00E942F0567E0A62EB12C4A
:101DA00058E0C52ED12C4AE0E42EF12C0BE010E0D7
:101DB00040C087E00E94E91040917702242F30E074
:101DC0008217930731F0B092A901A092A801409325
:101DD000AA0188E00E94E91040917802242F30E0A7
:101DE0008217930731F0D092A901C092A8014093C5
:101DF000AA018AE00E94E91040917902242F30E084
:101E00008217930731F0F092A901E092A801409364
:101E1000AA018BE00E94E91040917A02242F30E061
:101E20008217930731F01093A9010093A801409302
:101E3000AA018091A8019091A901892B09F4B9CF39
:101E400088E20E945D0500E610E0F801E555FE4FCE
:101E50008DE991E0B80140810E9462040F5F1F4F3D
:101E60000436110591F78DE991E062ED70E0409143
:101E7000A8010E9462048DE991E063ED70E0409159
:101E8000AA010E9462041092A201A4960FB6F894CF
:101E9000DEBF0FBECDBFCF91DF911F910F91FF909D
:101EA000EF90DF90CF90BF90AF9008950F931F9366
:101EB000CF93DF938091A4018823A1F181E061E0B9
:101EC0000E947C1001E087E00E94E91010E0892B5D
:101ED00009F011E088E00E94E910892B09F0102731
:101EE0008AE00E94E910892B09F010278BE00E94FC
:101EF000E910892B09F01027112319F4C8EED3E05B
:101F000002C0C4EFD1E081E061E00E949C10CE01EC
:101F10000E94341081E060E00E949C10CE010E947B
:101F20003410D1CF8091A201882319F00E94310E84
:101F300017C08091A501882319F00E948E0B10C054
:101F40008091A601882319F00E94C10609C08091E2
:101F5000A301882319F00E94820A02C00E94C807C8
:101F6000DF91CF911F910F9108950E9442100E941E
:101F700042090E94560FFDCF1F920F920FB60F928B
:101F800011242F933F934F935F936F937F938F937E
:101F90009F93AF93BF93EF93FF9380917B029091B8
:101FA0007C02019690937C0280937B020E94E30066
:101FB00081E08093B200FF91EF91BF91AF919F912B
:101FC0008F917F916F915F914F913F912F910F90E2
:101FD0000FBE0F901F9018951F920F920FB60F9281
:101FE00011242F933F938F939F93AF93BF9380912F
:101FF000820290918302A0918402B0918502309177
:1020000086020196A11DB11D232F2D5F2D3720F0D3
:102010002D570196A11DB11D209386028093820247
:1020200090938302A0938402B093850280917E02F4
:1020300090917F02A0918002B09181020196A11D32
:10204000B11D80937E0290937F02A0938002B09393
:102050008102BF91AF919F918F913F912F910F90EE
:102060000FBE0F901F901895019759F0FC01EE0FCD
:10207000FF1FEE0FFF1F32978FB7F8943197F1F7DC
:102080008FBF0895789484B5826084BD84B58160E3
:1020900084BD85B5826085BD85B5816085BDEEE670
:1020A000F0E0808181608083E1E8F0E080818260FF
:1020B0008083808181608083E0E8F0E080818160BE
:1020C0008083E1EBF0E0808184608083E0EBF0E0EE
:1020D000808181608083EAE7F0E080818460808392
:1020E000808182608083808181608083808180683C
:1020F00080831092C1000895282F30E0C901835DCC
:102100009E4FFC019491275E3E4FF90184918823F4
:1021100091F0E82FF0E0EE0FFF1FE550FF4FA59183
:10212000B491662329F48C91909589238C9308951A
:102130008C91892B8C930895482F50E0CA018F5BB6
:102140009E4FFC012491CA01835D9E4FFC01949136
:10215000475E5E4FFA0134913323D1F1222331F1EE
:10216000233021F4809180008F7705C0243031F432
:10217000809180008F7D8093800018C0213019F4F9
:1021800084B58F7704C0223021F484B58F7D84BD5F
:102190000DC0263021F48091B0008F7705C0273024
:1021A00029F48091B0008F7D8093B000E32FF0E0A0
:1021B000EE0FFF1FEB5FFE4FA591B491662329F44C
:1021C0008C91909589238C9308958C91892B8C9375
:1021D0000895682F70E0CB018F5B9E4FFC01249126
:1021E000CB01835D9E4FFC014491675E7E4FFB01F6
:1021F0009491992319F420E030E038C0222331F182
:10220000233021F4809180008F7705C0243031F491
:10221000809180008F7D8093800018C0213019F458
:1022200084B58F7704C0223021F484B58F7D84BDBE
:102230000DC0263021F48091B0008F7705C0273083
:1022400029F48091B0008F7D8093B000892F90E0B9
:10225000880F991F815F9E4FFC01A591B4918C91CD
:1022600020E030E0842311F021E030E0C90108953E
:10227000991B79E004C0991F961708F0961B881FD8
:102280007A95C9F78095089597FB092E07260AD0FD
:1022900077FD04D00CD006D000201AF4709561951B
:1022A0007F4F0895F6F7909581959F4F0895AA1B4B
:1022B000BB1B51E107C0AA1FBB1FA617B70710F031
:1022C000A61BB70B881F991F5A95A9F78095909563
:1022D000BC01CD010895EE0FFF1F0590F491E02D94
:0622E0000994F894FFCF01
:1022E60000302E39005AFF414C540044454C4554A9
:1022F60045004C4546540052494748540055500045
:10230600444F574E004241434B53504143450045CD
:1023160053430054414200454E54455200535041E8
:1023260043450053484946540043414C49425241B3
:1023360054494F4E0053415645440020008B02003D
:0623460000FFFFFFFF0095
:00000001FF
