:100000000C94AC000C9429020C94D4000C94D400F1
:100010000C94D4000C94D4000C94D4000C94D40010
:100020000C94D4000C94F80B0C94D4000C94D400D1
:100030000C94D4000C94D4000C94D4000C94D400F0
:100040000C94280C0C94D4000C94D4000C94D40080
:100050000C94D4000C94D4000C94D4000C94D400D0
:100060000C94D4000C94D4000403090420037200FF
:1000700061006E006300690064006200610063005B
:100080006F006E002E0063006F006D0018035500B6
:10009000730062004B006500790062006F00610030
:1000A000720064001201100100000008424231E1B8
:1000B0000001010200010902220001010080320951
:1000C00004000001030000000921010100012223B6
:1000D000000705810308000A05010906A1010507BB
:1000E00019E029E71500250175019508810295039E
:1000F00075082565190029658100C00000000024ED
:100100000027002A0000000000250028002B000026
:100110000000002300260029000404040404040451
:1001200004020202020202030303030303010204A6
:100130000810204080010204081020010204081069
:100140002000000007000201000003040600000078
:10015000000000000000850311241FBECFEFD8E08F
:10016000DEBFCDBF11E0A0E0B1E0EEEAFBE102C0EE
:1001700005900D92A430B107D9F712E0A4E0B1E0E8
:1001800001C01D92A632B107E1F711E0C8E5D1E048
:1001900004C02297FE010E94D10DC635D107C9F7D0
:1001A0000E94F10B0C94D50D0C940000E9E6F0E0F0
:1001B000808182608083E89A8BE480932D018AE5B8
:1001C00080932C0108951F93CF93DF9390911E018C
:1001D000935097FDA6C020911A01809120018D3285
:1001E00009F09DC0983009F09AC0CCE0D0E0C21B65
:1001F000D109CC5FDE4F83EC809321018AE58093A7
:10020000000110923A018881807629F0CE010E9487
:100210005D03282F7BC09A8110922A01898188234F
:1002200021F410922B0122E06BC0853019F49093D9
:100230001C0165C0863009F04EC08B81813041F4CD
:1002400084EA90E0909339018093380122E13FC025
:10025000823041F486EB90E090933901809338012D
:1002600022E235C08330F1F4992341F488E690E02E
:10027000909339018093380124E029C0913041F4F2
:100280008CE690E0909339018093380120E21FC002
:100290009230E1F48CE890E090933901809338013A
:1002A00028E115C0813241F488EC90E09093390147
:1002B0008093380129E00BC0823241F488ED90E050
:1002C000909339018093380123E201C020E080E45B
:1002D00080933A011BC0883021F421E08DE191E048
:1002E00011C0893019F490931D0109C08A3011F4AE
:1002F00021E006C08B3019F48BE480932D0120E0BF
:100300008AE291E090933901809338018F818823AC
:1003100021F48E81821708F4282F20930101109276
:100320001E018091000184FF4AC0809101018F3F2E
:1003300009F445C0182F893008F018E0811B80931C
:1003400001018091210198E88927809321011123DF
:1003500041F1209138013091390180913A0186FFB5
:100360000DC0A2E2B1E080E090E0F901E80FF91FD2
:10037000E491ED9301961817C1F708C0912FD901A8
:10038000E2E2F1E08D9181939150E1F71150812FDC
:1003900090E01F5F0196820F931F90933901809325
:1003A000380182E291E0612F0E942502612F6C5F8B
:1003B0006C3019F08FEF809301016093000194E19C
:1003C00089B1847131F49150D9F710921C011092C7
:1003D0001B01DF91CF911F9108951F93DC01162F10
:1003E00080912C0184FF07C080912D0198E8892716
:1003F00080932D0103C08AE580932C01912FEEE2BA
:10040000F1E08D91819391501916DCF38EE291E029
:10041000612F0E9425021C5F10932C011F910895EB
:10042000A82FB92F80E090E041E050EA609530E0DD
:1004300009C02D9182279795879510F084279527DD
:10044000305EC8F36F5FA8F30895EADF8D939D9344
:100450000895CF93CFB7CF93DF93C3954C9BE9F724
:100460004C9B0BC04C9B09C04C9B07C04C9B05C0D0
:100470004C9B03C04C9B01C08BC06F93C0911A0171
:10048000DD27CC5FDE4F2F9365E54C9B03C02F919A
:100490006F91E6CF0F931F934F9320E040E15F935E
:1004A00009B1047104FB27F93F9350E03BE039C0E8
:1004B000147140642F77012F5F5F1EC0406819B12F
:1004C00014712F7752501FC0406409B12F77047107
:1004D000D1F15F5F00C023C0406219B12F77147162
:1004E00091F15F5F00C025C004711027515012F4D4
:1004F0005D5F0000115027952C3F19B1C8F61471AB
:100500000127015027952C3FC8F64227499309B18E
:10051000047110274F73115027952C3FA8F646956C
:10052000469519B1147179F00127015027952C3F98
:1005300098F66B5A60F3315009B1B0F600C011E083
:100540001CBB002719C03B503195C31BD04011E0A4
:100550001CBB0881033C09F10B34F9F020911B010D
:100560001981110F1213EDCF4A81441F093651F141
:100570000D3211F0013E29F700931F013F915F9169
:100580004F911F910F912F916F91CCB3C0FD65CF0B
:10059000DF91CF91CFBFCF91189520911F012223DA
:1005A00069F310911E01112391F5343092F13093CB
:1005B0001E012093200110911A013BE0311B309362
:1005C0001A0127C000911E0101300CF50AE54F7099
:1005D00049F43091000134FD1DC000930001C1E2D7
:1005E000D1E01CC030912C0134FD14C000932C01CB
:1005F000CDE2D1E013C0052710E000C000000BB928
:100600001AC0052710E0221F1DC010E021C04AE5D6
:1006100002C032ED432FC4E1D0E032E01AB11461E0
:100620005C9A0BB11AB954E120E865E320FF052775
:100630000BB9279517951C3FF0F66695B8F7B1F7FB
:1006400020FF05270BB9279517951C3FD0F6279556
:10065000179517FF052700001C3F0BB9B0F629912D
:100660003A9519F70B7E10911C01110FC651D0401D
:100670000BB911F010931B0111E01CBB00611AB102
:100680001B7E402F4B7E54E05A95F1F70BB91AB9F7
:100690004BB974CFF999FECF72BD61BDF89A80B5A0
:1006A0000895F999FECF1FBA72BD61BD40BD0FB666
:1006B000F894FA9AF99A0FBE0895FC018CE391E040
:1006C000909339018093380180818076803251F493
:1006D0008181813039F0823029F08A3019F48381A8
:1006E0008093190280E0089580E090E0000000000F
:1006F00000000000000000000000000000000000FA
:1007000001968436910591F708951BB88AB18B6ED6
:100710008AB9F89455985D98559A5D9A0E94D600CA
:10072000789410923C0110923D0110923E0110927B
:100730003F018CE391E064E00E94ED010895CF93C6
:10074000DF93EC0180912C0184FFFCCF1882198289
:100750001A821B8248836983CE0164E00E94ED0106
:1007600080912C0184FFFCCF188219821A821B828F
:10077000CE0164E00E94ED01DF91CF9108951F93B7
:10078000CF93DF93182FEB011092180210921702EB
:100790008091170290911802892BD1F30E94740363
:1007A000C330D10539F1C430D1054CF4C130D10585
:1007B000B9F0C230D105CCF4CD2B69F035C0C530CD
:1007C000D10511F1C530D105D4F0C630D10509F1FC
:1007D000279751F523C08CE391E0612F40E022C0C0
:1007E0008CE391E0612F42E01DC08CE391E0612F2A
:1007F00041E018C08CE391E0612F43E013C08CE32B
:1008000091E0612F44E00EC08CE391E0612F46E05F
:1008100009C08CE391E0612F45E004C08CE391E0D6
:10082000612F47E00E949F03109218021092170256
:1008300080911702909118020597D0F31092180238
:1008400010921702DF91CF911F9108950F931F937C
:10085000CF93DF939C016AE070E00E94A80D8C01A9
:10086000281B390BC90164E670E00E94A80D6AE0FC
:1008700070E00E94A80DEB0110921802109217026E
:1008800080911702909118020297D0F386EF9FEFA4
:10089000AC01C49FC001C59F900DD49F900D112441
:1008A000820F931F64E670E00E94A80D672B29F069
:1008B00085E261E070E00E94BF031092180210927E
:1008C000170280911702909118020297D0F3209797
:1008D00021F09E01235E822F01C087E260E070E07C
:1008E0000E94BF0310921802109217028091170203
:1008F000909118020297D0F30115110519F0802F7D
:10090000835E01C087E260E070E00E94BF03109246
:100910001802109217028091170290911802029704
:10092000D0F3DF91CF911F910F9108951F93182F4E
:1009300010921802109217028091170290911802DB
:10094000892BD1F30E9474038CE391E0612F40E086
:100950000E949F03109218021092170280911702B2
:10096000909118020597D0F3109218021092170276
:100970001F91089588E161E070E00E94BF0386E165
:1009800061E070E00E94BF0385E061E070E00E94DA
:10099000BF038CE261E070E00E94BF0387E161E089
:1009A00070E00E94BF038CE161E070E00E94BF0331
:1009B00083E161E070E00E94BF0388E061E070E0E5
:1009C0000E94BF038AE161E070E00E94BF0385E1FD
:1009D00061E070E00E94BF038CE061E070E00E9483
:1009E000BF0387E161E070E00E94BF0388E061E03F
:1009F00070E00E94BF0385E161E070E00E94BF03E8
:100A000086E261E070E00E94BF0387E161E070E090
:100A10000E94BF0380E161E070E00E94BF0387E2B3
:100A200061E070E00E94BF0388E20E94960485E1C5
:100A300061E070E00E94BF0388E061E070E00E9426
:100A4000BF0389E161E070E00E94BF038CE261E0D6
:100A500070E00E94BF038FE160E070E00E94BF037E
:100A600087E360E070E00E94BF0381E260E070E035
:100A70000E94BF0388E20E94960485E061E070E076
:100A80000E94BF038CE160E070E00E94BF038CE233
:100A900061E070E00E94BF038DE061E070E00E94C1
:100AA000BF0384E061E070E00E94BF0386E061E084
:100AB00070E00E94BF038EE061E070E00E94BF031F
:100AC0008CE261E070E00E94BF038DE161E070E0C4
:100AD0000E94BF038CE161E070E00E94BF038FE0E1
:100AE00061E070E00E94BF038EE061E070E00E9470
:100AF000BF038CE061E070E00E94BF0381E161E030
:100B000070E00E94BF0388E20E94960488E160E0E2
:100B100070E00E94BF0386E160E070E00E94BF03C6
:100B200085E060E070E00E94BF0387E160E070E074
:100B30000E94BF038CE160E070E00E94BF0383E18C
:100B400060E070E00E94BF0388E060E070E00E9417
:100B5000BF038AE160E070E00E94BF0385E160E0CE
:100B600070E00E94BF038CE060E070E00E94BF0371
:100B700087E160E070E00E94BF0388E060E070E021
:100B80000E94BF0385E160E070E00E94BF0387E33D
:100B900060E070E00E94BF0386E060E070E00E94C9
:100BA000BF0382E160E070E00E94BF0380E160E08B
:100BB00070E00E94BF0388E20E94960486E061E034
:100BC00070E00E94BF0384E061E070E00E94BF0318
:100BD0008FE061E070E00E94BF038CE061E070E0B4
:100BE0000E94BF0385E061E070E00E94BF0385E1E1
:100BF00061E070E00E94BF0384E061E070E00E9469
:100C0000BF0387E161E070E00E94BF038CE061E018
:100C100070E00E94BF0381E161E070E00E94BF03C9
:100C20008AE061E070E00E94BF0387E30E949604BF
:100C300087E30E94960487E30E94960487E161E0BF
:100C400070E00E94BF038CE161E070E00E94BF038E
:100C500083E161E070E00E94BF0388E061E070E042
:100C60000E94BF038CE261E070E00E94BF0387E155
:100C700061E070E00E94BF038BE061E070E00E94E1
:100C8000BF0388E061E070E00E94BF038CE20E9435
:100C9000960489E061E070E00E94BF0382E161E0B8
:100CA00070E00E94BF038FE061E070E00E94BF032C
:100CB0008FE061E070E00E94BF0382E161E070E0DC
:100CC0000E94BF038AE161E070E00E94BF038CE0F4
:100CD00061E070E00E94BF0381E161E070E00E948A
:100CE000BF038AE061E070E00E94BF038CE20E94D3
:100CF00096048EE061E070E00E94BF0388E061E04E
:100D000070E00E94BF038CE161E070E00E94BF03CD
:100D100086E161E070E00E94BF0383E361E070E080
:100D20000E94BF0388E20E94960408951F93182F23
:100D300000000000000000000000000000000000B3
:100D40000000000061E00E94000D000000000000B3
:100D50000000000000000000000000000000812FE3
:100D600060E00E94000D0000000000000000000094
:100D7000000000000000000000001F9108951F9374
:100D8000182F00000000000000000000000000001C
:100D900000000000000060E00E94000D0000000064
:100DA0000000000000000000000000000000000043
:100DB000812F61E00E94000D000000000000000093
:100DC0000000000000000000000000001F910895D6
:100DD000FF920F931F9380910A0290910B0225E7D7
:100DE000803392072CF4019690930B0280930A02B1
:100DF00082E161E00E94000D83E190E00E9496068E
:100E000082E160E00E94000D00000000FF2411E07C
:100E100083E190E00E94960686E00E944D0D0197C6
:100E200009F4F12E1F5F1F3599F787E00E944D0DE1
:100E30002091100230E08217930711F030E6F32E74
:100E400088E00E944D0D2091110230E08217930737
:100E500011F021E6F22E89E00E944D0D2091120240
:100E600030E08217930711F092E6F92E8AE00E9493
:100E70004D0D2091130230E08217930719F083E69D
:100E8000F82E03C0FF2009F4A6CF82E161E00E94A2
:100E9000000D83E190E00E94960682E160E00E94EE
:100EA000000D0000000000E011E083E190E00E94EE
:100EB000960686E00E944D0D019709F4012F1F5FF1
:100EC0001F3599F70F1511F4102F01C010E087E0BE
:100ED0000E944D0D2091100230E08217930709F017
:100EE00010E688E00E944D0D2091110230E082173B
:100EF000930709F011E689E00E944D0D209112023E
:100F000030E08217930709F012E68AE00E944D0D47
:100F10002091130230E08217930709F013E6812F26
:100F20001F910F91FF9008951F93CF93DF93182F78
:100F30000E94E806C82FD0E02097D1F380E10E94FC
:100F40004D0D892B41F4CE018C599F4FFC01EE5B76
:100F5000FE4F108305C0FE01EE5BFE4F1083CE01F5
:100F60000E94260410921802109217028091170214
:100F7000909118024E97D0F3109218021092170217
:100F8000DF91CF911F910895EF92FF921F93DF930E
:100F9000CF930F92CDB7DEB7198210920B02109249
:100FA0000A020E94E806182F81E10E944D0D892B4C
:100FB00019F48981826089838BE00E944D0D209114
:100FC000140230E08217930719F0898181608983C8
:100FD0008DE00E944D0D2091150230E0821793079D
:100FE00061F0E12FF0E0EA55FE4F8081882311F097
:100FF0001C5903C089818460898380E10E944D0D62
:10100000892B61F4E12FF0E0EA55FE4F80818823BF
:1010100011F01C5903C08981846089838CE00E948F
:101020004D0D2091160230E08217930719F0898147
:1010300082608983812F64E60E949C0DE92EFF2443
:101040008091020190910301E816F90691F48091D4
:101050000A0290910B024A9764F480910C029091DD
:101060000D02A0910E02B0910F020B97A105B105E0
:1010700064F0112381F0E12FF0E0EE5BFE4F698117
:10108000808170E00E94BF0302C0112321F0F09222
:101090000301E09202010F90CF91DF911F91FF9029
:1010A000EF900895CF93DF9381E10E944D0D892B3E
:1010B00031F481E0809340011092410105C010920B
:1010C000400181E08093410181E090E00E94BF06F1
:1010D00082E160E00E94000DC2E4D1E083E190E093
:1010E0000E949606199282E0CA30D807B9F78CE2BE
:1010F0008093A701DF91CF9108951F93CF93DF9342
:101100000E94BA0414E0812F0E94960483E361E0F8
:1011100070E00E94BF03812F0E94940788E20E9422
:1011200096041F5F1E3179F7812F0E94960483E396
:1011300061E070E00E94BF03812F0E94940788E263
:101140000E9496041F5F183279F787E30E94960485
:1011500083E361E070E00E94BF0387E30E9494078D
:1011600088E20E94960486E30E94960483E361E08D
:1011700070E00E94BF0386E30E94940788E20E9409
:10118000960488E30E94960483E361E070E00E9485
:10119000BF0388E30E94940788E20E94960483E3D9
:1011A0000E94960483E361E070E00E94BF0383E342
:1011B0000E94940788E20E94960484E30E949604A9
:1011C00083E361E070E00E94BF0384E30E94940720
:1011D00088E20E94960485E00E94960484E00E94C2
:1011E000960486E00E9496048EE00E94960486E1B2
:1011F0000E94960483E10E94960484E00E94960473
:1012000086E00E94960488E00E94960485E10E9490
:10121000960483E361E070E00E94BF038AE20E94CB
:10122000940788E20E94960487E00E94960488E072
:101230000E9496048FE00E94960488E00E94960423
:1012400087E10E94960488E00E94960483E361E0AF
:1012500070E00E94BF038CE40E94940788E20E9421
:1012600096048DE20E94960483E361E070E00E94A0
:10127000BF038DE20E94940788E20E9496048EE2EA
:101280000E94960483E361E070E00E94BF038EE257
:101290000E94940788E20E94960481E30E949604CB
:1012A00083E361E070E00E94BF0381E30E94940742
:1012B00088E20E9496048FE20E94960483E361E034
:1012C00070E00E94BF038FE20E94940788E20E94B0
:1012D000960480E30E94960483E361E070E00E943C
:1012E000BF0380E30E94940788E20E94960485E38E
:1012F00061E070E00E94BF0383E361E070E00E9460
:10130000BF0385E30E94940788E20E9496048FE061
:1013100061E070E00E94BF0388E061E070E00E943D
:10132000BF0389E061E070E00E94BF0387E161E0F4
:1013300070E00E94BF0383E361E070E00E94BF039E
:1013400080E50E94940788E20E94960485E161E0AE
:1013500070E00E94BF038CE061E070E00E94BF0378
:101360008AE061E070E00E94BF038BE061E070E022
:101370000E94BF0387E161E070E00E94BF0383E346
:1013800061E070E00E94BF038FE40E94940788E24E
:101390000E94960488E161E070E00E94BF0383E14F
:1013A00061E070E00E94BF0383E361E070E00E94AF
:1013B000BF0382E50E94940788E20E94960487E0BA
:1013C00061E070E00E94BF0382E161E070E00E9492
:1013D000BF038AE161E070E00E94BF0381E161E048
:1013E00070E00E94BF0383E361E070E00E94BF03EE
:1013F00081E50E94940788E20E94960487E161E0FB
:1014000070E00E94BF0384E061E070E00E94BF03CF
:1014100085E061E070E00E94BF0383E361E070E07B
:101420000E94BF038BE20E94940788E20E94960408
:1014300088E061E070E00E94BF0386E161E070E057
:101440000E94BF0386E061E070E00E94BF0383E377
:1014500061E070E00E94BF0389E20E94940788E285
:101460000E949604C1E0D0E089E061E070E00E9453
:10147000BF03CE010E94260483E361E070E00E9476
:10148000BF039E01275C822F0E94940788E20E947E
:1014900096042196CD30D10539F786E10E94960455
:1014A00083E10E94960484E00E94960486E00E94F4
:1014B000960488E00E94960483E361E070E00E9455
:1014C000BF038CE20E94940788E20E94960488E0A1
:1014D0000E94960481E10E94960487E10E9496048E
:1014E00088E00E94960485E10E94960483E361E00F
:1014F00070E00E94BF0388E20E94940788E20E9485
:10150000960486E00E94960484E00E9496048FE090
:101510000E9496048CE00E94960485E00E94960446
:1015200085E10E94960484E00E94960487E10E946F
:1015300096048CE00E94960482E10E94960481E168
:101540000E9496048CE20E94960486E10E94960412
:1015500084E00E94960489E10E94960488E00E943B
:10156000960487E00E9496048EE161E070E00E949C
:10157000BF0388E20E949604C1E0D0E0FE01EE5B6A
:10158000FE4F8BE391E0BE0140810E945103219602
:10159000C93CD10599F710924001DF91CF911F917D
:1015A0000895CF93DF93C0E0D0E08BE391E0BE01DC
:1015B0000E944A03FE01EE5BFE4F80832196C436F3
:1015C000D10599F710924101C4E6D0E08BE391E098
:1015D000BE010E944A03FE01EE5BFE4F808321960E
:1015E000C83CD10599F710924101DF91CF91089540
:1015F00080914001882319F00E947D080895809110
:101600004101882319F00E94D10A08950E94C4075D
:1016100008950F931F93CF93DF938C01C0E0D0E028
:1016200005C088EE93E00E94980C2196C017D10760
:10163000C0F3DF91CF911F910F910895EEE6F0E096
:1016400080811082F89455985D988AEF90E00E940E
:10165000090B559A5D9A7894089582E161E00E94A1
:10166000E00C83E161E00E94E00C81E061E00E9417
:10167000E00C88E060E00E94E00C86E060E00E9400
:10168000E00C87E060E00E94E00C88E060E00E94EF
:10169000E00C89E060E00E94E00C8AE060E00E94DB
:1016A000E00C8BE060E00E94E00C8DE060E00E94C6
:1016B000E00C8CE060E00E94E00C81E160E00E94C0
:1016C000E00C81E161E00E94000D87E061E00E9492
:1016D000000D88E061E00E94000D89E061E00E9459
:1016E000000D8AE061E00E94000D8BE061E00E9445
:1016F000000D8CE061E00E94000D8DE061E00E9431
:10170000000D80E161E00E94000D000087E00E9472
:101710004D0D10921002892B19F081E08093100278
:1017200088E00E944D0D10921102892B19F081E082
:101730008093110289E00E944D0D10921202892BB4
:1017400019F081E0809312028AE00E944D0D109200
:101750001302892B19F081E0809313028BE00E9421
:101760004D0D10921402892B19F081E08093140220
:101770008DE00E944D0D10921502892B19F081E029
:10178000809315028CE00E944D0D10921602892B59
:1017900019F081E080931602089581E090E00E94A4
:1017A000090B0E942D0B8DE061E00E94000D0E944C
:1017B00052080E941E0B1092B00087E08093B10087
:1017C00081E0809370008093B20010921802109212
:1017D00017028091170290911802883C9105C8F376
:1017E00008950E94A60C0E94CD0B0E94F80AFDCF1E
:1017F0001F920F920FB60F9211242F933F934F9386
:101800005F936F937F938F939F93AF93BF93EF9368
:10181000FF938091170290911802019690931802FD
:10182000809317020E94E30081E08093B200FF9151
:10183000EF91BF91AF919F918F917F916F915F9148
:101840004F913F912F910F900FBE0F901F901895C1
:101850001F920F920FB60F9211242F938F939F9385
:10186000AF93BF9380911A0290911B02A0911C022A
:10187000B0911D020196A11DB11D80931A02909393
:101880001B02A0931C02B0931D0280911E02909136
:101890001F02A0912002B09121028050904CAF4FC6
:1018A000BF4F80931E0290931F02A0932002B0931B
:1018B000210227C080911E0290911F02A091200258
:1018C000B091210280589E43A040B04080931E02F8
:1018D00090931F02A0932002B093210280912202D4
:1018E00090912302A0912402B09125020196A11D9E
:1018F000B11D8093220290932302A0932402B093FF
:10190000250280911E0290911F02A0912002B091A9
:10191000210281589E43A040B04060F6BF91AF9134
:101920009F918F912F910F900FBE0F901F90189540
:10193000019759F0FC01EE0FFF1FEE0FFF1F3297CA
:101940008FB7F8943197F1F78FBF0895789484B5E5
:10195000826084BD84B5816084BD85B5826085BDAB
:1019600085B5816085BDEEE6F0E080818160808391
:10197000E1E8F0E080818260808380818160808303
:10198000E0E8F0E0808181608083E1EBF0E080813D
:1019900084608083E0EBF0E0808181608083EAE70F
:1019A000F0E0808184608083808182608083808198
:1019B000816080838081806880831092C100089557
:1019C000282F30E0C901835D9E4FFC019491275E72
:1019D0003E4FF9018491882391F0E82FF0E0EE0F5B
:1019E000FF1FE550FF4FA591B491662329F48C9118
:1019F000909589238C9308958C91892B8C930895CD
:101A0000482F50E0CA018F5B9E4FFC012491CA0110
:101A1000835D9E4FFC019491475E5E4FFA013491C5
:101A20003323D1F1222331F1233021F4809180003E
:101A30008F7705C0243031F4809180008F7D8093B2
:101A4000800018C0213019F484B58F7704C022308B
:101A500021F484B58F7D84BD0DC0263021F48091A2
:101A6000B0008F7705C0273029F48091B0008F7DBA
:101A70008093B000E32FF0E0EE0FFF1FEB5FFE4F0F
:101A8000A591B491662329F48C91909589238C9328
:101A900008958C91892B8C930895682F70E0CB0169
:101AA0008F5B9E4FFC012491CB01835D9E4FFC0117
:101AB0004491675E7E4FFB019491992319F420E0D5
:101AC00030E038C0222331F1233021F480918000AE
:101AD0008F7705C0243031F4809180008F7D809312
:101AE000800018C0213019F484B58F7704C02230EB
:101AF00021F484B58F7D84BD0DC0263021F4809102
:101B0000B0008F7705C0273029F48091B0008F7D19
:101B10008093B000892F90E0880F991F815F9E4FBE
:101B2000FC01A591B4918C9120E030E0842311F068
:101B300021E030E0C9010895991B79E004C0991FA4
:101B4000961708F0961B881F7A95C9F78095089517
:101B500097FB092E07260AD077FD04D00CD006D0BB
:101B600000201AF4709561957F4F0895F6F79095CF
:101B700081959F4F0895AA1BBB1B51E107C0AA1F67
:101B8000BB1FA617B70710F0A61BB70B881F991F1E
:101B90005A95A9F780959095BC01CD010895EE0F57
:0E1BA000FF1F0590F491E02D0994F894FFCFFB
:041BAE005AFFFFFFDC
:00000001FF
